:100000000C940C010C9436010C9436010C943601BE
:100010000C9436010C9436010C9436010C94360184
:100020000C9436010C9436010C9436010C94360174
:100030000C9436010C9413290C9436010C9436015F
:100040000C9436010C9436010C94DD260C94360188
:100050000C94B1270C9487270C9436010C9436012C
:100060000C9436010C9436010C94E7270C9436015D
:100070000C9451270C9427270C9436010C943601CC
:100080000C9436010C9436010C94360100407A1021
:10009000F35A00A0724E18090010A5D4E80000E839
:1000A0007648170000E40B54020000CA9A3B000097
:1000B00000E1F505000080969800000040420F0026
:1000C0000000A08601000000102700000000E803E7
:1000D000000000006400000000000A0000000000B2
:1000E0000100000000002C76D888DC674F0823DF71
:1000F000C1DFAE59E1B1B796E5E3E453C63AE65144
:10010000997696E8E6C28426EB898C9B62ED407C6A
:100110006FFCEFBC9C9F40F2BAA56FA5F490055A06
:100120002AF75C936B6CF9676DC11BFCE0E40D472B
:10013000FEF520E6B500D0ED902E0300943577054E
:100140000080841E080000204E0A000000C80C3306
:100150003333330F986E12831141EF8D2114893B95
:10016000E65516CFFEE6DB18D1844B381BF77C1D15
:10017000901DA4BBE424203284725E228100C9F168
:1001800024ECA1E53D277C3C3E5E2B3D3F2F5B5D93
:100190003B2C2A225C0000002200250028002B00B6
:1001A00000002000230026002900000000020300B8
:1001B0000A0B000000000504090800000000000010
:1001C00000000000000000000000000021002400EA
:1001D00027002A00010204081020408001020408C0
:1001E0001020408001020408102040800102040811
:1001F00010204080020202020202020204040404EF
:1002000004040404030303030303030301010101C2
:1002100001010101EF29183411241FBECFEFD0E4F2
:10022000DEBFCDBF2EE0AAEBB3E001C01D92A63128
:10023000B207E1F713E0A0E0B1E0ECEEF6E700E092
:100240000BBF02C007900D92AA3BB107D9F711E08E
:10025000CBE0D1E004C02197FE010E948038CA3073
:10026000D107C9F70E94812A0C94693B0C940000C5
:100270000CB405FC0DC01EBC00000DB407FEFDCF84
:100280009EB51EBC00000DB407FEFDCF8EB50895CF
:100290001EBC00000DB407FEFDCF8EB51EBC0000D5
:1002A0000DB407FEFDCF9EB50895982F8091650A85
:1002B0008111FCCF81E08093650A8093640A2FEF5F
:1002C0002093630A2DE33AE03093620A2093610A97
:1002D0001092600A2FEF260F20935F0A80935E0A28
:1002E00080915E0A990F982B90935E0A80915D0A27
:1002F0008130C9F410925D0A80915E0A8093BB0040
:100300008091BC0083FDF8CF85EC8093BC00809188
:10031000650A8130E1F38091600A861710F46091DC
:10032000600A862F089585EEF0CF282F90913C0A21
:1003300081E0913208F042C08091650A8111FCCFC2
:1003400080913B0A32E03093650A2093640A2FEFD4
:100350002093630A2BE13AE03093620A2093610A0A
:100360001092600A90935F0A10925E0A90915E0A62
:10037000880F892B80935E0A80915D0A813029F570
:1003800010925D0A80915E0A8093BB008091BC0050
:1003900083FDF8CF85EC8093BC008091650A8230A4
:1003A000E1F38091630A8F3F91F08091630A80327C
:1003B00081F08091630A803371F084E010921A0A10
:1003C00010923C0A1092190A089585EEE4CF80E05D
:1003D000F5CF82E0F3CF83E0F1CF91E09093190A5B
:1003E00080933B0A10921A0A10923C0A0895909149
:1003F000180A8091170A2FEF3FEF981748F4E92F5A
:10040000F0E0E35CF54F208130E09F5F9093180AA5
:10041000C90108959091180A8091170A2FEF3FEFB4
:10042000981748F4E92FF0E0E35CF54F208130E0C5
:100430009F5F9093180AC901089582508A3088F509
:10044000E82FF0E0EA5DFD4F0C9480384E02520236
:1004500030023602510251023A02400244024A027C
:10046000809180008F778093800008958091800034
:100470008F7DF9CF8091B0008F778093B000089581
:100480008091B0008F7DF9CF809190008F7780931D
:1004900090000895809190008F7DF9CF84B58F777B
:1004A00084BD089584B58F7DFBCFCF93DF93282F34
:1004B00030E0F901E655FE4F8491F901EC52FE4F10
:1004C000D491F901EC50FE4FC491CC23A1F08111DD
:1004D0000E941D02EC2FF0E0EE0FFF1FE056FE4FD2
:1004E000A591B491EC91ED2381E090E009F480E0D6
:1004F000DF91CF91089580E090E0FACF1F93CF93E2
:10050000DF93282F30E0F901E655FE4F8491F90181
:10051000EC52FE4FD491F901EC50FE4FC491CC2324
:10052000A9F0162F81110E941D02EC2FF0E0EE0FB2
:10053000FF1FEA56FE4FA591B4918FB7F894EC9146
:10054000111108C0D095DE23DC938FBFDF91CF91CE
:100550001F910895DE2BF8CFCF93DF9390E0FC013D
:10056000EC52FE4F24918C509E4FFC0184918823C5
:10057000D1F090E0880F991FFC01E653FE4FA59142
:10058000B491FC01EA56FE4FC591D49161110EC0A1
:100590009FB7F8948C91E22FE0958E238C9328815D
:1005A000E223E8839FBFDF91CF9108958FB7F8943E
:1005B000EC91E22BEC938FBFF6CF00000000880F88
:1005C000991F05970197F1F708953FB7F894809127
:1005D000130A9091140AA091150AB091160A26B533
:1005E000A89B05C02F3F19F00196A11DB11D3FBF6B
:1005F000BA2FA92F982F8827BC01CD01620F711D3A
:10060000811D911D43E0660F771F881F991F4A9532
:10061000D1F708958F929F92AF92BF92CF92DF92BF
:10062000EF92FF926B017C010E94E5024B015C019D
:10063000C114D104E104F104B9F00E94E502681983
:1006400079098A099B09683E73408105910580F309
:1006500021E0C21AD108E108F10888EE880E83E093
:10066000981EA11CB11CE4CFFF90EF90DF90CF90BB
:10067000BF90AF909F908F900895DF92EF92FF927E
:100680000F931F93CF93DF93D82F162F042F8CE057
:100690000E945502D82E8DE00E945502E82E8EE071
:1006A0000E945502F82EC5E060E570E080E090E021
:1006B0000E940A03DD2321F061E08CE00E947E02AB
:1006C000112321F061E08DE00E947E02002321F0E1
:1006D00061E08EE00E947E0260E570E080E090E0E4
:1006E0000E940A03DD2321F060E08CE00E947E027C
:1006F000112321F060E08DE00E947E02002321F0B2
:1007000060E08EE00E947E02C15071F66D2D8CE09B
:100710000E947E026E2D8DE00E947E026F2D8EE083
:10072000DF91CF911F910F91FF90EF90DF900C948C
:100730007E022FB7F89460910F0A7091100A809191
:10074000110A9091120A2FBF0895AF92BF92CF92D3
:10075000DF92EF92FF920F931F93CF93DF936C0181
:100760007B018B01040F151FEB015E01AE18BF0862
:10077000C017D10759F06991D601ED91FC91019014
:10078000F081E02DC6010995892B79F7C501DF912C
:10079000CF911F910F91FF90EF90DF90CF90BF907E
:1007A000AF900895FC01538D448D252F30E0842FA8
:1007B00090E0821B930B541710F0CF960895019789
:1007C0000895FC01918D828D981761F0A28DAE0F76
:1007D000BF2FB11D5D968C91928D9F5F9F73928FFD
:1007E00090E008958FEF9FEF0895FC01918D828D29
:1007F000981731F0828DE80FF11D858D90E00895F6
:100800008FEF9FEF0895FC01918D228D892F90E04D
:10081000805C9F4F821B91098F739927089589E609
:100820009CE00E94030421E0892B09F420E0822F40
:10083000089586E09DE00E94030421E0892B09F4DD
:1008400020E0822F0895FC01A48DA80FB92FB11DBF
:10085000A35ABF4F2C91848D90E001968F739927F6
:10086000848FA689B7892C93A089B1898C918370D4
:1008700080648C93938D848D981306C00288F389CD
:10088000E02D80818F7D80830895EF92FF920F93FA
:100890001F93CF93DF93EC0181E0888F9B8D8C8D2C
:1008A00098131AC0E889F989808185FF15C09FB720
:1008B000F894EE89FF896083E889F98980818370E3
:1008C000806480839FBF81E090E0DF91CF911F9192
:1008D0000F91FF90EF900895F62E0B8D10E00F5FB3
:1008E0001F4F0F731127E02E8C8D8E110CC00FB689
:1008F00007FCFACFE889F989808185FFF5CFCE0121
:100900000E942304F1CFEB8DEC0FFD2FF11DE35A74
:10091000FF4FF0829FB7F8940B8FEA89FB898081A3
:100920008062CFCFCF93DF93EC01888D8823B9F01D
:10093000AA89BB89E889F9898C9185FD03C08081EA
:1009400086FD0DC00FB607FCF7CF8C9185FFF2CF67
:10095000808185FFEDCFCE010E942304E9CFDF9196
:10096000CF91089580E090E0892B29F00E9419042E
:1009700081110E94000080E090E0892B29F00E9404
:100980000F0481110C94000008958FB7F8948091A2
:100990000E048FBF089561E0FC0184810E947E02F5
:1009A00080910D04811110920D0408958EBD0000F8
:1009B0000DB407FEFDCF8EB508958FEF0C94D604CD
:1009C0000F931F93CF93DF93EC010E9499038B0148
:1009D0000E94DD048F3F69F00E949903601B710B38
:1009E0006C177D07A8F380E0DF91CF911F910F91E5
:1009F000089581E0F9CF8CBD9DBD0895CF93DF931D
:100A0000EC0180910D04811109C081E080930D04F7
:100A10008091A30D9091A40D0E94FB0460E08C8155
:100A2000DF91CF910C947E028F929F92AF92BF92F2
:100A3000FF920F931F93CF93DF93EC01F62E4901A2
:100A40005A018E81882389F08F8198859C012F5FC0
:100A50003F4F38872F838230924018F40E94DD0484
:100A6000F3CFCE010E94CB041E82CE010E94FE0471
:100A70008CE291E00E94E0048F2D80640E94D604F5
:100A800008E110E0D501C401002E04C0B695A79579
:100A9000979587950A94D2F70E94D60408501109B9
:100AA000083F8FEF180771F785E9FF2021F028E054
:100AB00087E8F2128FEF0E94D60410E00E94DD0456
:100AC0008A8787FF04C01F3F11F01F5FF7CFDF91B8
:100AD000CF911F910F91FF90BF90AF909F908F90FB
:100AE0000895AF92BF92CF92DF92EF92FF920F9351
:100AF0001F93CF93DF93EC016901C801820F931F0D
:100B00008130924050F58E81882379F088819981D7
:100B1000AA81BB8184179507A607B70731F48F8197
:100B20009885C816D90608F042C0488359836A835D
:100B30007B838B85833039F089E0440F551F661F16
:100B4000771F8A95D1F79A01AB0161E1CE010E942E
:100B50001405882389F083E08D83CE010E94CB04A5
:100B600080E0DF91CF911F910F91FF90EF90DF9088
:100B7000CF90BF90AF9008950E9499035B010E94AF
:100B8000DD048A878F3F69F40E9499036A197B0903
:100B90006D327140A0F38FE08D83CE010E94CB04B3
:100BA000DCCF8E3F89F418861F8281E08E838F818F
:100BB00098858C159D0550F40E94DD048F819885E1
:100BC000019698878F83F3CF8DE0E6CF6701E00E23
:100BD000F11E0E94DD04F60181936F01EE15FF0501
:100BE000C1F78F819885080F191F18870F83898592
:100BF000882319F001151240A0F08E81882389F016
:100C00008F8198859C012F5F3F4F38872F838230DB
:100C1000924018F40E94DD04F3CFCE010E94CB0471
:100C20001E8281E09ECFEF92FF920F931F93CF938E
:100C3000DF93EC01790182E14115510561057105F0
:100C400099F08B85833039F089E0440F551F661F7A
:100C5000771F8A95D1F79A01AB0168E1CE010E9416
:100C60001405882319F084E08D8330C08EEF0E9434
:100C7000D60487018EEFF81AF80181918F010E9446
:100C8000D6040E151F05C1F78FEF0E94D6048FEF13
:100C90000E94D6040E94DD048A878F71853089F412
:100CA00088E592E00E94E0048823A9F020E030E08B
:100CB000A9016DE0CE010E941405882371F084E142
:100CC000D3CF81E18D83CE010E94CB04CE010E945F
:100CD000CB0480E00AC085E1C7CF0E94DD0481110A
:100CE000EECFCE010E94CB0481E0DF91CF911F9126
:100CF0000F91FF90EF900895CF93DF9380910F04B1
:100D00008823A9F1C091670CD091680C4091010132
:100D100050910201609103017091040127E63AE0CD
:100D2000CE010E941306811104C080E0DF91CF91B3
:100D30000895409110045091110460911204709133
:100D40001304411551056105710579F027E63AE074
:100D5000CE010E941306882341F3109210041092D2
:100D60001104109212041092130410920F0481E0E7
:100D7000DDCF8F929F92AF92BF92EF92FF920F932F
:100D80001F93CF934B015C01C42F8091010190917F
:100D90000201A0910301B091040188159905AA05EB
:100DA000BB0549F10E947C0681110BC080E0CF9108
:100DB0001F910F91FF90EF90BF90AF909F908F90F9
:100DC000089587E6E82E8AE0F82E00E012E030E091
:100DD00020E0B501A4018091670C9091680C0E94FD
:100DE0007105882319F38092010190920201A0926B
:100DF0000301B092040140910F044C2B40930F0467
:100E000081E0D5CF8F929F92AF92BF92CF92DF9227
:100E1000EF92FF92CF9325EA3DE03093680C209348
:100E2000670C882309F46DC040E060E070E0CB01FE
:100E30000E94B90681110BC080E0CF91FF90EF9026
:100E4000DF90CF90BF90AF909F908F90089580914A
:100E5000250C8F7789F78091310C9091320CA091FD
:100E6000330CB091340C84369105A105B10520F303
:100E7000C0902D0CD0902E0CE0902F0CF090300CE8
:100E8000C114D104E104F104B9F240E0C701B60194
:100E90000E94B906882381F28091720A9091730AA8
:100EA0008115924049F6A091770AAA2329F2609110
:100EB000750A7091760A6115710509F4BDCF20910C
:100EC000740A222309F4B8CFA093C30D2093B50D63
:100ED00090E080E030E0E1E0F0E0C82FAF01082EC4
:100EE00002C0440F551F0A94E2F72417350769F032
:100EF00041E0480F01968930910579F74093BE0D86
:100F00009BCFC12CD12C7601C0CF8093BE0D2091F8
:100F10007D0A30917E0A50E040E02115310541F410
:100F200020918B0A30918C0A40918D0A50918E0A43
:100F30002093B60D3093B70D4093B80D5093B90D73
:100F400046015701860E971EA11CB11C8092C40D4C
:100F50009092C50DA092C60DB092C70DE091780A8F
:100F6000F091790AF093CA0DE093C90DB0E00E94A8
:100F70002038DC01CB01880D991DAA1DBB1D809373
:100F8000CB0D9093CC0DA093CD0DB093CE0D25E05D
:100F9000EE0FFF1F2A95E1F7E150FE4FEF2FFF27DD
:100FA000E6958E0F9F1FA11DB11D8093BF0D9093DD
:100FB000C00DA093C10DB093C20D80907A0A90909D
:100FC0007B0AB12CA12C8114910441F48090870AF2
:100FD0009090880AA090890AB0908A0AC81AD90A03
:100FE000EA0AFB0AC80CD91CEA1CFB1C04C0F694D4
:100FF000E794D794C794CA95D2F7C092BA0DD0920D
:10100000BB0DE092BC0DF092BD0D85EFC8168FE0D0
:10101000D806E104F10428F48CE08093C80D81E047
:101020000CCF80E125EFC2162FEFD206E104F104C8
:10103000A0F38091930A9091940AA091950AB0919F
:10104000960A8093CB0D9093CC0DA093CD0DB093C9
:10105000CE0D80E2E2CF4F925F926F927F928F929D
:101060009F92AF92BF92CF92DF92EF92FF920F9337
:101070001F93CF93DF93EC01423051056105710559
:1010800090F480E0DF91CF911F910F91FF90EF904E
:10109000DF90CF90BF90AF909F908F907F906F9098
:1010A0005F904F90089589859A85AB85BC850196A0
:1010B000A11DB11D84179507A607B70710F3CB88AC
:1010C000DC88ED88FE888F89803109F042C0BB271B
:1010D000A72F962F852F480159012A013B01C80EE1
:1010E000D91EEA1EFB1E8091010190910201A09180
:1010F0000301B0910401C816D906EA06FB0699F56A
:101100008F898031C1F5B301A20155276627772762
:10111000440F551F4959554FFA01918280828091A1
:101120000F04816080930F048A89823080F08D8162
:101130009E81AF81B8858C0D9D1DAE1DBF1D809316
:10114000100490931104A0931204B093130481E04F
:1011500099CFDB01CA01E7E0B695A79597958795EA
:10116000EA95D1F7B8CF40E0C701B6010E94B906B1
:101170008111C6CF86CFB301A2014F7755276627CD
:101180007727440F551F440F551F4959554FFA01F2
:1011900080829182A282B382C2CF8F929F92AF92BD
:1011A000BF92CF92DF92EF92FF920F931F93CF9354
:1011B000DF93FC0181859285A385B4850196A11DED
:1011C000B11D84179507A607B70770F480E0DF917B
:1011D000CF911F910F91FF90EF90DF90CF90BF9034
:1011E000AF909F908F90089583889488A588B68843
:1011F0008789803189F5BB27A72F962F852FE90195
:101200006A017B018F01BC01CD01680D791D8A1D2A
:101210009B1D8090010190900201A0900301B0906D
:10122000040186169706A806B90601F5F801878914
:10123000803111F5DD24EE24FF24F601EE0FFF1FAF
:10124000E959F54F80819181B0E0A0E088839983CE
:10125000AA83BB8381E0BBCFDB01CA01C7E0B6959F
:10126000A79597958795CA95D1F7C9CF40E00E9479
:10127000B9068111DBCFAACFE894C7F8DD24EE24AC
:10128000FF24F601EE0FFF1FEE0FFF1FE959F54F88
:1012900080819181A281B381BF70D8CF4F925F923C
:1012A0006F927F92AF92BF92CF92DF92EF92FF92B6
:1012B0000F931F93CF93DF9300D000D0CDB7DEB74D
:1012C0008C0149835A836B837C835901C12CD12CB7
:1012D0007601412C82E0582E612C712C49815A8173
:1012E0006B817C819E012F5F3F4FC8010E94CD081A
:1012F000882339F1F8018585A301920104C0220FEA
:10130000331F441F551F8A95D2F7DA01C901C80E51
:10131000D91EEA1EFB1E49815A816B817C81878917
:10132000803111F188EF9FEFAFEFBFE04817590709
:101330006A077B0798F2F501C082D182E282F382CC
:1013400081E00F900F900F900F90DF91CF911F9140
:101350000F91FF90EF90DF90CF90BF90AF907F9074
:101360006F905F904F90089588EF9FEFA0E0B0E0FE
:10137000DDCF8F929F92AF92BF92CF92DF92EF928A
:10138000FF920F931F93CF93DF93EC018D81811117
:101390000EC080E0DF91CF911F910F91FF90EF90F1
:1013A000DF90CF90BF90AF909F908F9008950B8962
:1013B0001C892D893E89041715072607370748F32E
:1013C0004A015B01823031F48A869B86AC86BD86F9
:1013D00081E0E0CF81149104A104B10449F41E829C
:1013E0001F82188619861A861B861C861D86F0CFDA
:1013F0000A851B852C853D85EB8DFC8D858590E0D0
:101400000996B901A8014150510961097109082ED5
:1014100004C076956795579547950A94D2F775015C
:101420006401E1E0CE1AD108E108F10804C0F694A5
:10143000E794D794C7948A95D2F7C416D506E606E2
:10144000F70620F0012B022B032B11F58F89988DC5
:10145000A98DBA8D8E839F83A887B9878E010A5F75
:101460001F4FC114D104E104F10409F4ADCF4E8142
:101470005F816885798598018B8D9C8D0E94CD0850
:1014800091E0C91AD108E108F1088111EACF81CFB2
:10149000C41AD50AE60AF70AE1CF3F924F925F924B
:1014A0006F927F928F929F92AF92BF92CF92DF9274
:1014B000EF92FF920F931F93CF93DF93CDB7DEB7D9
:1014C0002C970FB6F894DEBF0FBECDBF5C01DC01D8
:1014D0005B968D909C905C9716964D905D906D906C
:1014E0007C901997411451046104710409F468C097
:1014F000BFEF4B1A5B0A6B0A7B0A312CF401818522
:101500009285A385B4859C01AD012F5F3F4F4F4F5E
:101510005F4F29873A874B875C87730162011D8281
:101520001E821F821886F40181859285A385B48569
:101530002D813E814F815885281739074A075B075F
:1015400008F056C089859A85AB85BC858C159D05AC
:10155000AE05BF0550F482E0C82ED12CE12CF12C51
:1015600092E0492E512C612C712C9E012F5F3F4F30
:10157000B701A601C4010E94CD088823C9F1898161
:101580009A81AB81BC81892B8A2B8B2B09F1260197
:1015900037019FEF491A590A690A790A2D813E815C
:1015A0004F8158852F5F3F4F4F4F5F4F2D833E83B5
:1015B0004F8358873FEFC31AD30AE30AF30AB3CF26
:1015C000F40140805180628073803324339496CF3D
:1015D000C414D504E604F70409F70FEF1FEF2FEF4B
:1015E0003FE0B701A601C4010E942B08811119C078
:1015F00080E02C960FB6F894DEBF0FBECDBFDF9112
:10160000CF911F910F91FF90EF90DF90CF90BF90FF
:10161000AF909F908F907F906F905F904F903F9092
:101620000895F50146815781608571854115510501
:101630006105710539F097018601C4010E942B08EC
:101640008823B1F2D5011696CD92DD92ED92FC92EF
:101650001997332051F0D701C6010196A11DB11D84
:10166000F40180839183A283B383F5018789908DF0
:10167000A18DB28D892B8A2B8B2B39F4C78AD08E02
:10168000E18EF28E84818068848381E0B2CFCF9333
:10169000DF93EC018D81882389F18C8187FF2AC03B
:1016A0006E857F858889998941E00E94B9068823E3
:1016B00029F1EA8980E2E89FF0011124E959F54F08
:1016C0003097E1F08D81823040F48B899C89AD891F
:1016D000BE89848F958FA68FB78F8F89988D938FB2
:1016E000828F8F89988DA98DBA8DB58BA48B8C81B3
:1016F0008F778C83DF91CF910C947C0680E0DF9113
:10170000CF910895CF93DF93EC010E94470B88237C
:1017100011F01D8281E0DF91CF910895CF92DF9289
:10172000EF92FF921F93CF93DF938091D40D882384
:1017300021F08FEC9DE00E94820B1092B00D109270
:10174000AE0D1092AB0D1092AA0D84E08093A90DFE
:101750000E949903EB0161E08091A90D0E94AC0207
:1017600061E08091A90D0E947E021FB7F8948091DC
:10177000660A811127C0E8EFF1E08491E8EDF1E01D
:101780009491E82FF0E0EE0FFF1FE653FE4FA59176
:10179000B491EC91E92321F461E084E00E947E029F
:1017A00061E084E00E94AC028CB580618CBD8CB598
:1017B00080648CBD61E087E00E94AC0261E085E05E
:1017C0000E94AC028091660A8F5F8093660A1FBFF9
:1017D00082E58093A30D81E08093A40D8091A30DF9
:1017E0009091A40D0E94FB041AE08FEF0E94D60492
:1017F0001150D9F785EA9DE00E94FE0420E030E018
:10180000A90160E085EA9DE00E941405182F8093ED
:10181000AF0D8130B9F00E9499036C1B7D0B613DC7
:10182000774060F381E08093AA0D85EA9DE00E94F5
:10183000CB0480E0DF91CF911F91FF90EF90DF907C
:10184000CF9008952AEA31E040E050E068E085EA70
:101850009DE00E94140582FF2AC01093B00D809174
:10186000B00DC12CD12C7601823029F4C12CD12CA1
:10187000E12C30E4F32E20E030E0A90167E385EAB3
:101880009DE00E941405A701960169E285EA9DE0AA
:101890000E9414058093AF0D8823C1F00E94990324
:1018A0006C1B7D0B613D774030F388E0BCCF14E0CA
:1018B0000E94DD048093AF0D1150D1F78A3A11F0E8
:1018C00082E0B1CF82E08093B00DC9CF8091B00D9E
:1018D0008230D1F420E030E0A9016AE385EA9DE09E
:1018E0000E941405882311F086E09DCF0E94DD043C
:1018F000807C803C19F483E08093B00D0E94DD046D
:101900000E94DD040E94DD0485EA9DE00E94CB0474
:1019100080E58093A30D81E08093A40D0E940207CF
:10192000882309F44DC08091D40D811182CF80911C
:10193000C80D803109F04BC082E08093D40D109225
:10194000E60D1092E70D1092E80D1092E90D8091CE
:10195000C90D9091CA0DB0E0A0E025E0880F991F55
:10196000AA1FBB1F2A95D1F78093E20D9093E30D38
:10197000A093E40DB093E50D81EB9DE09093EB0D0A
:101980008093EA0D81E08093D30D1092D50D1092D3
:10199000D60D1092D70D1092D80D1092D90D10922D
:1019A000DA0D1092DB0D1092DC0D1092DD0D10920D
:1019B000DE0D1092DF0D1092E00D1092E10D3ACF86
:1019C00080E00E940207882309F433CFACCF803235
:1019D00009F02FCF83E08093D40D4091CB0D50912F
:1019E000CC0D6091CD0D7091CE0D4093E60D5093CE
:1019F000E70D6093E80D7093E90D22EE3DE081EB79
:101A00009DE00E944E098111B7CF13CF2F923F92D4
:101A10004F925F926F927F928F929F92AF92BF92FE
:101A2000CF92DF92EF92FF920F931F93CF93DF93AA
:101A300000D000D0CDB7DEB78C015B011A01DC010C
:101A400015968C911597813009F0C8C014968C9129
:101A500081FFC4C082FDAEC06101D8011A964D91CC
:101A60005D916D917C911D97C114D10409F429C138
:101A70005B968D919C915C97FC0174802FEF270DF4
:101A80002A013B0139E076946794579447943A953C
:101A9000D1F7722E74207A01F1E0FF22711020C07C
:101AA000E114F104E9F416964D915D916D917C91EC
:101AB0001997411551056105710509F098C05796B0
:101AC0008D919D910D90BC91A02D0097A105B10520
:101AD00009F0AFC0C8010E944D0A882309F47EC0F6
:101AE00080E092E08E199F0946018C159D0508F44F
:101AF0004C01D8015B964D915C915C9716968D9147
:101B00009D910D90BC91A02D0297A109B109FA01F8
:101B1000258504C0880F991FAA1FBB1F2A95D2F7DD
:101B20004685578560897189840F951FA61FB71F49
:101B30009C01AD01270D311D411D511D29013A01A7
:101B4000811432E0930609F07AC0809101019091EE
:101B50000201A0910301B091040184159505A60529
:101B6000B70559F48FEF9FEFDC018093010190934B
:101B70000201A0930301B09304019501B301A201F6
:101B80008091670C9091680C0E941306882331F1B4
:101B90009EEFB91AC818D908F80182859385A485E3
:101BA000B585880D991DA11DB11D82879387A487D6
:101BB000B58753CFF8014389548965897689828531
:101BC0009385A485B585481759076A077B0709F4EB
:101BD00043CFC8010E94B90981113ECF81E090E056
:101BE000D80113969C938E93129780E007C09E01B4
:101BF0002F5F3F4F0E94CD08811102C090E077C057
:101C000089819A81AB81BC81F801238D348DF901E2
:101C1000278948EF5FEF60E070E0203121F048EF66
:101C20005FEF6FEF7FE084179507A607B70708F00F
:101C300051CFF80186839783A087B18751CFE114F4
:101C4000F10491F5D8011A964D915D916D917C91B9
:101C50001D9753968D919D910D90BC91A02D481785
:101C600059076A077B0700F10E947C06882309F464
:101C7000B5CF40920101509202016092030170922F
:101C8000040180910F04816080930F04970129590A
:101C9000354FD501C901880D991DF9018E179F0790
:101CA00059F04D914193FACF41E0C301B2010E9436
:101CB000B9068111EBCF92CF821B930BA80EB91EF0
:101CC00069CFF80183899489A589B6898417950716
:101CD000A607B70738F48481438B548B658B768BCA
:101CE00080688483F801848183FD18C0C1010F904E
:101CF0000F900F900F90DF91CF911F910F91FF9058
:101D0000EF90DF90CF90BF90AF909F908F907F909B
:101D10006F905F904F903F902F900895C8010E9460
:101D2000470B882309F45ACFE1CFCF93DF931F925B
:101D3000CDB7DEB7698341E050E0BE016F5F7F4FF2
:101D40000E94060D0F90DF91CF910895FC01DB01F9
:101D500012968D919C9113979383828384E591E0F1
:101D60009183808314968C911497848315968C911B
:101D70001597858316964D915D916D917C9119977C
:101D800046835783608771871A964D915D916D9157
:101D90007C911D9742875387648775871E964D9166
:101DA0005D916D917C91519746875787608B718BC0
:101DB00052968C915297828B53964D915D916D9175
:101DC0007C915697438B548B658B768B57964D91B0
:101DD0005D916D917C915A97478B508F618F728F77
:101DE0005B968D919C91948F838F08950895FC014B
:101DF000818D928D009711F00C94470B0895DC01B2
:101E00005996ED91FC913097B9F083899489A58911
:101E1000B6894285538564857585841B950BA60B11
:101E2000B70B811520E89207A105B10538F08FEFB7
:101E30009FE7A0E0B0E0089590E080E00895CF93A0
:101E4000DF93EC01E98DFA8D309749F481E090E061
:101E50009B838A8390E080E0DF91CF910895138285
:101E60001282898D9A8D0E94060DE98DFA8D22814C
:101E70003381232B59F7F0CFCF93DF931F92CDB748
:101E8000DEB76983DC01ED91FC910280F381E02DE6
:101E900041E050E0BE016F5F7F4F09950F90DF91E9
:101EA000CF9108952F923F924F925F926F927F92BF
:101EB0008F929F92AF92BF92CF92DF92EF92FF925A
:101EC0000F931F93CF93DF9300D01F92CDB7DEB750
:101ED000FC018581811118C08FEF9FEF0F900F904B
:101EE0000F90DF91CF911F910F91FF90EF90DF90B6
:101EF000CF90BF90AF909F908F907F906F905F90AA
:101F00004F903F902F900895848180FFE5CF4389C3
:101F100054896589768982859385A485B585312C18
:101F2000212C481759076A077B0719F022242394AC
:101F3000312C6F012101CE0101963C01DF01169683
:101F4000BB83AA834114510409F4C5C0F60142853C
:101F50005385648575854A01F1E09F22D6015B9621
:101F60008D919C915C978A019B01E9E036952795BC
:101F700017950795EA95D1F71596EC91E230E9F5BA
:101F8000FC01628D738D848D958D600F711F821F92
:101F9000931FA12C22E0B22EA818B9084A145B04A2
:101FA00008F45201F601248126FD04C0A114F2E0D8
:101FB000BF0671F40091010110910201209103010B
:101FC00030910401061717072807390709F05EC08A
:101FD00040E00E94B906882309F47ECFC4018959E4
:101FE000954FD3019C012A0D3B1DFC012E173F0785
:101FF00009F46CC041914D93F9CFDC011496BC906B
:10200000BA94B0228114910479F4B1100DC0452B1B
:10201000462B472B69F5F6018789908DA18DB28DEE
:1020200086839783A087B187D6015B96ED91FC915B
:102030005C9716966D917D918D919C911997625048
:10204000710981099109258504C0660F771F881FD2
:10205000991F2A95D2F70685178520893189600F47
:10206000711F821F931F6B0D711D811D911D91CFDB
:10207000D60116964D915D916D917C9119972A81AB
:102080003B810E94CD088111CFCF26CF73018501FE
:102090009401AB01BC018091670C9091680C0E9487
:1020A0007105882309F418CF6A0C7B1CF601828520
:1020B0009385A485B5858A0D9B1DA11DB11D8287C1
:1020C0009387A487B5874A185B083CCF281B390B38
:1020D000620E731EEBCF2A94232809F0FDCE89816E
:1020E00090E0FCCEFC01818D928D009711F00C9454
:1020F000520F8FEF9FEF08950F931F93CF93DF93AE
:10210000EC01898D9A8D10E000E0009799F00E9413
:10211000520F8C010F3F100769F0898D9A8DFC01D9
:10212000428553856485758541505109610971095E
:102130000E94B909C801DF91CF911F910F910895B5
:1021400085ED8093BC008091BC0084FDFCCF109293
:10215000650A08952091EA03260F3327331F2132A1
:102160003105ECF42091650AFC0190E080E0243018
:1021700069F082E00895A091EA032191AC014653F1
:102180005C4FA40FB52FB11D2C930196861798F3C1
:102190008091EA03680F6093EA0380E0089581E08C
:1021A00008950895E091180A8091170AE81730F40D
:1021B000F0E0E35CF54F808190E008958FEF9FEFB2
:1021C00008958091170A9091180A891B990B089518
:1021D000CF92DF92EF92FF920F931F93CF93DF93F3
:1021E0007C01CB018A012091190A222389F0EB019D
:1021F0006B01C40ED51ECC15DD0569F06991D701C0
:10220000ED91FC910190F081E02DC7010995F3CF8C
:10221000642F0E94AA10C801DF91CF911F910F91E6
:10222000FF90EF90DF90CF900895CF93DF931F92B0
:10223000CDB7DEB769832091190A2223F9F02091E6
:102240003C0A203258F021E030E0FC013383228345
:1022500090E080E00F90DF91CF91089580911A0A6D
:10226000E82FF0E0E55EF54F998190838F5F8093D2
:102270001A0A80933C0A81E090E0ECCF61E0CE0145
:1022800001960E94AA10F7CF682F8EEE9DE00C9465
:10229000151181E00C9495011F93CF93DF93EC010E
:1022A000162F88810E94ED0189AD9AADDC01ED9178
:1022B000FC910190F081E02D612F099589AD9AADD7
:1022C0000E94491190E09B8B8A8BDF91CF911F91E7
:1022D00008958F929F92AF92BF92CF92DF92EF922A
:1022E000FF921F93CF93DF93CDB7DEB72A970FB638
:1022F000F894DEBF0FBECDBF9C019AE0ECE0F1E0A8
:10230000DE01119601900D929A95E1F74D3060F142
:102310004CE018EF140F912F990F690FC9010E941B
:102320004C11412F50E0440F551F81E090E08C0F7D
:102330009D1F480F591FFA01C080D1800E94E502FD
:102340004B015C01F12CE12C0E94E502681979092E
:102350008A099B096C157D058E059F0548F48AE066
:1023600090E00E94DD02F0CF483098F648E0D1CFEF
:102370002A960FB6F894DEBF0FBECDBFDF91CF9186
:102380001F91FF90EF90DF90CF90BF90AF909F9004
:102390008F9008950F931F93CF93DF93EC01162F27
:1023A000072F8A810E94ED018A8D9B8DDC01ED91C2
:1023B000FC910190F081E02D602F09958A8D9B8D15
:1023C000DC01ED91FC910190F081E02D612F0995E8
:1023D0008A8D9B8D0E944911882341F081E8898F65
:1023E00080E0DF91CF911F910F91089581E0F9CFA7
:1023F000CF93FC0122812454223020F0C0E08C2FA6
:10240000CF91089562EA70E30E94CA11C82F882311
:10241000A9F361E070E080E090E00E940A03EFCF52
:10242000CF93DF93EC018A810E94ED018A8D9B8D11
:102430000E944911282F30E02115310511F084E860
:10244000898F81E0232B09F080E0DF91CF910895FF
:1024500090E080E0089561E082E10E947E0260E009
:1024600083E10E947E0261E070E080E090E00C94E5
:102470000A0361E083E10E947E0260E082E10C9445
:102480007E02CF93C82F80E70E94ED0181E090E0AB
:102490000E9444116C2F8EEE9DE00E9415118EEE6D
:1024A0009DE0CF910C944911CF93DF93C8ECD0E01D
:1024B0008AEF90E00E94DD0261E08FE00E947E02E0
:1024C0008AEF90E00E94DD0260E08FE00E947E02D1
:1024D000219771F7DF91CF910895CF93C82F8AE6A6
:1024E0000E94ED0162E08EEE9DE00E94151180E6F3
:1024F00091E00E9444118EEE9DE00E9449118AE60F
:102500000E94ED0164E18EEE9DE00E94151166E2ED
:102510008EEE9DE0CC2309F442C00E94151169E1C2
:102520008EEE9DE00E94151160EA8EEE9DE00E9405
:10253000151166E58EEE9DE00E94151160E08EEEAD
:102540009DE00E94151161E08EEE9DE00E94151144
:102550008EEE9DE00E9449118AE60E94ED016AE13B
:102560008EEE9DE00E9415116FEB8EEE9DE00E94B5
:1025700015118EEE9DE00E9449118AE60E94ED0140
:1025800066E28EEE9DE00E9415116CE88EEE9DE0F5
:102590000E9415118EEE9DE0CF910C9449110E947E
:1025A000151169E98EEE9DE00E94151160E0BDCF26
:1025B000CF93DF93D82FC62F8AE60E94ED016D2FAF
:1025C0008EEE9DE00E9415116C2F8EEE9DE00E9414
:1025D00015118EEE9DE0DF91CF910C944911862F5D
:1025E000413208F040E2642F0E9455011092180A0F
:1025F0008093170A08958F929F92AF92BF92CF92C5
:10260000DF92EF92FF92CF93DF93EC0160E00E94A4
:102610004C118A899B89892B71F060E070E0CB01B5
:10262000DF91CF91FF90EF90DF90CF90BF90AF9070
:102630009F908F90089543E0688189AD9AAD0E9484
:10264000EF12833050F389AD9AADDC01ED91FC912E
:102650000284F385E02D0995092E000CAA0BBB0B13
:102660005C019924882489AD9AADDC01ED91FC913F
:102670000284F385E02D09956C01990FEE08FF089F
:10268000FE2CED2CDC2CCC24C80CD91CEA1CFB1C29
:1026900089AD9AADDC01ED91FC910284F385E02DCA
:1026A0000995BC01990F880B990B6C0D7D1D8E1D32
:1026B0009F1DB6CFCF92DF92EF92FF920F931F93A1
:1026C000CF93DF938C01F62EE42EC52E462FDC012E
:1026D00012966C9112975A968D919C910E94EF12CE
:1026E0008F1113C0DE2CCE2DDC2D8C2F8D198F1564
:1026F000C8F4F801828D938DDC01ED91FC91028488
:10270000F385E02D09958993F0CF82E8F801818F58
:1027100080E0DF91CF911F910F91FF90EF90DF90BC
:10272000CF90089581E0F5CFFF920F931F93CF9341
:10273000DF9300D000D000D0CDB7DEB78C0166E1CA
:1027400074E20E94CA11F82E882351F164E070E00F
:1027500080E090E00E940A03AE014F5F5F4F66E0A9
:10276000C8010E945A13F82E8823D1F0898190E085
:10277000982F88272A81820F911DF801908F878BCF
:102780008C8190E0982F88272D81820F911D968B48
:10279000858B0E949903F8016483758386839783F0
:1027A0008F2D26960FB6F894DEBF0FBECDBFDF91FA
:1027B000CF911F910F91FF90089580E70E94ED0146
:1027C00081E090E00E94441180E00E94950141E088
:1027D00060E78EEE9DE00E94EF120E940A020895CB
:1027E0000E94DD13982F937011F0933031F4982FDD
:1027F0009C7019F081E09C3009F480E00895CF933B
:10280000C4E00E94DD13982F937011F09330F9F417
:10281000982F9C7071F09C3061F080610E94411291
:1028200062E070E080E090E00E940A0381E0CF91D6
:102830000895807C8F600E94411261E070E080E02A
:1028400090E00E940A03C150E1F680E0F0CF807C66
:102850008360F1CF0E94FF1381E50E94ED0167E2E2
:102860008EEE9DE00E94151160E08EEE9DE00E94CC
:10287000151185E990E00E9444118EEE9DE00E94C2
:102880004911A89568EE73E080E090E00E940A0389
:10289000A89568EE73E080E090E00E940A03A89596
:1028A00068EE73E080E090E00E940A03A8950E9421
:1028B000541281E50E94ED0167E28EEE9DE00E94D8
:1028C000151163E08EEE9DE00E94151185E990E000
:1028D0000E9444118EEE9DE00E9449110FB6F894BB
:1028E000A8958091600088618093600010926000DC
:1028F0000FBE8AE60E94ED0168E18EEE9DE00E9427
:1029000015116AE08EEE9DE00E9415118EEE9DE09D
:102910000E94491168E873E180E090E00E940A0398
:102920000E945412F7CF8AE60E94ED018DE290E0FA
:102930000E9444118EEE9DE00E94491141E06AE63A
:102940008EEE9DE00E94EF120E940A028F7708959A
:10295000CF93C82F8AE60E94ED016C2F8EEE9DE08A
:102960000E94151180E00E94950141E06AE68EEE1A
:102970009DE00E94EF129091170A8091180A981713
:1029800021F00E940A02CF91089580E0FCCF8F923F
:102990009F92AF92BF92FF920F931F93CF93DF93BB
:1029A00081E50E94ED0190E080E00E9444118EEEEE
:1029B0009DE00E94491146E061E58EEE9DE00E9497
:1029C000EF120E940A029C0194E0359527959A9592
:1029D000E1F72F7033273AE0F32E8F70F29E800DCF
:1029E000112480931D040E940A02982F9F779295CC
:1029F0009F708F70D82F9F9DD00D11240E940A02C6
:102A0000982F9F7792959F708F70C82F9F9DC00DB4
:102A100011240E940A028C010E940A029C0144E0D7
:102A2000359527954A95E1F72F7033278F70F29EE1
:102A3000800D1124282F30E0A4E6B0E00E942B384E
:102A40004B015C010E940A029C0154E035952795D8
:102A50005A95E1F72F7033278F70F29E800D112465
:102A6000282F30E0A0E1B7E20E942B389B01AC0197
:102A7000280D391D4A1D5B1DC80164E09595879599
:102A80006A95E1F78F7099270F70F89E000D112459
:102A9000200F311D411D511DA0E1BEE00E942038D4
:102AA0002CE3C29F80011124012E000C220B330B5A
:102AB000600F711F821F931F6D0F711D811D911D6E
:102AC00060931E0470931F0480932004909321044C
:102AD000DF91CF911F910F91FF90BF90AF909F908A
:102AE0008F9008950E9455011092180A8093170A3A
:102AF00008950F931F93CF93DF93C82F85E50E940E
:102B0000ED010C2E000CDD0BCE010E9444118EEE67
:102B10009DE00E94491161E070E085E590E00E942F
:102B200072150E940A028C0185E50E94ED01CE011A
:102B300001960E9444118EEE9DE00E94491161E0D1
:102B400070E085E590E00E9472150E940A0220E084
:102B5000382FC901800F911FDF91CF911F910F91E5
:102B60000895CF92DF92EF92FF921F93CF93DF935E
:102B7000EC0180E2689FF0011124E959F54F93853B
:102B8000917161F0842F827449F080E0DF91CF91E0
:102B90001F91FF90EF90DF90CF900895142F6A8BD4
:102BA0008091010190910201A0910301B091040173
:102BB0008E879F87A88BB98BC488D588F12CE12C90
:102BC0007601DD24CC24CF8AD88EE98EFA8E828DD0
:102BD000938DB0E0A0E0AC01BD014C295D296E29C8
:102BE0007F294F8B588F698F7A8F83858871B1F4D5
:102BF000848D958DA68DB78D8B8B9C8BAD8BBE8B6D
:102C000081E08D831F701C831E821F8218861986A7
:102C10001A861B861C861D8681E0B8CF803109F09C
:102C2000B4CF9E012D5E3F4F8B8D9C8D0E944E092F
:102C3000882309F4AACF84E0E4CFFB0101900020AF
:102C4000E9F73197AF01461B570BDC01ED91FC9181
:102C50000280F381E02D09948F929F92AF92BF92F0
:102C60000F931F93CF93DF93CDB7DEB7A1970FB626
:102C7000F894DEBF0FBECDBF19A2423008F44AE07F
:102C80008E010F5D1F4F842E912CB12CA12CA5011C
:102C900094010E945E38E62FB901CA01EA3004F5BA
:102CA000E05DD801EE938D01232B242B252B79F7A2
:102CB00090E080E0109729F0BD0189E69CE00E9439
:102CC0001D16A1960FB6F894DEBF0FBECDBFDF91E3
:102CD000CF911F910F91BF90AF909F908F900895CB
:102CE000E95CDFCFCF93DF93BC0189E69CE00E94D3
:102CF0001D16EC016EE671E089E69CE00E941D164F
:102D00008C0F9D1FDF91CF9108954F925F926F922C
:102D10007F928F929F92AF92BF92CF92DF92EF926B
:102D2000FF921F93CF93DF938CE00E945502182FE0
:102D30008DE00E945502D82F8EE00E945502C82FC8
:102D400061E08CE00E947E0261E08DE00E947E02E4
:102D500061E08EE00E947E020E9499034B015C01BB
:102D600084EF482E55245394612C712C8EE10E94DF
:102D70005502892BC1F50E9499036B017C01A301C7
:102D800092010E945E38672B682B692B09F4A89585
:102D9000C818D908EA08FB0889EEC81683E0D806E7
:102DA000E104F10418F360E08CE00E947E0281ED02
:102DB000C81687E0D806E104F104C0F260E08DE0B7
:102DC0000E947E0289EBC8168BE0D806E104F1046C
:102DD00068F260E08EE00E947E0281E791E00E944E
:102DE00072160E942A14612F8CE00E947E026D2FC1
:102DF0008DE00E947E026C2F8EE0DF91CF911F91BB
:102E0000FF90EF90DF90CF90BF90AF909F908F900A
:102E10007F906F905F904F900C947E020F931F9362
:102E2000CF93DF93EC01FB01448155816081718177
:102E3000E881F9810280F381E02D09958C016EE62D
:102E400071E0CE010E941D16800F911FDF91CF917E
:102E50001F910F9108950F931F93CF93DF93EC0170
:102E600088819981009759F02A813B81261737077D
:102E700030F081E0DF91CF911F910F9108958B0188
:102E80006F5F7F4F0E94513A009759F09983888372
:102E90001B830A832C813D81232B59F7FC0110826F
:102EA000E8CF80E0E7CFEF92FF920F931F93CF938D
:102EB000DF936115710541F480E0DF91CF911F919F
:102EC0000F91FF90EF90089541155105B1F07B01EE
:102ED000EC010C811D81040F151FB8010E942B17F6
:102EE000882351F3288139818C819D81B701820F1C
:102EF000931F0E94533B1D830C8381E0DECFFB01B7
:102F000001900020E9F73197AF01461B570B0C9455
:102F10005317FB0144815581608171810C945317D3
:102F2000CF93DF93EC0188819981009711F00E9483
:102F3000C839198218821D821C821B821A82DF9175
:102F4000CF910895CF93DF93EC01FB010190002016
:102F5000E9F73197AF01461B570B0E9453178111B8
:102F600003C0CE010E949017CE01DF91CF9108954A
:102F7000EF92FF920F931F93CF93DF93EC017B01AE
:102F80008A01BA010E942B1781110BC0CE010E9449
:102F90009017CE01DF91CF911F910F91FF90EF908D
:102FA00008951D830C83B701888199810E94533B4A
:102FB000F0CFFB0101900020E9F73197AF01461BEC
:102FC000570B0C94B8170F931F93CF93DF93CDB784
:102FD000DEB761970FB6F894DEBF0FBECDBF8C0190
:102FE000CB01F801118210821382128215821482A1
:102FF0004AE0BE016F5F7F4F0E947E34BE016F5F6B
:103000007F4FC8010E94D91761960FB6F894DEBFB2
:103010000FBECDBFDF91CF911F910F9108950F93F8
:103020001F93CF93DF93CDB7DEB7A1970FB6F89478
:10303000DEBF0FBECDBF8C01CB01BA01F8011182FA
:10304000108213821282158214822AE0AE014F5F31
:103050005F4F0E945134BE016F5F7F4FC8010E94D5
:10306000D917A1960FB6F894DEBF0FBECDBFDF9182
:10307000CF911F910F9108950F931F93CF93DF93DB
:10308000CDB7DEB762970FB6F894DEBF0FBECDBFE7
:103090008C01CB01F80111821082138212821582F9
:1030A00014824AE0BE016F5F7F4F0E944634BE012A
:1030B0006F5F7F4FC8010E94D91762960FB6F894D0
:1030C000DEBF0FBECDBFDF91CF911F910F9108954D
:1030D0000F931F93CF93DF93CDB7DEB729970FB62A
:1030E000F894DEBF0FBECDBF8C01862FF801118290
:1030F0001082138212821582148250E0BE016F5F2B
:103100007F4F90E00E947334BE016F5F7F4FC80114
:103110000E94D91729960FB6F894DEBF0FBECDBF17
:10312000DF91CF911F910F910895CF93DF93EC0121
:10313000FB018617970749F0608171816115710560
:1031400041F0448155810E94B817CE01DF91CF91A3
:1031500008950E949017F9CFFC011182108213820A
:10316000128215821482FB0101900020E9F7319749
:10317000AF01461B570B0C94B817FC01808191815D
:10318000009711F00C94C83908953F924F925F92C6
:103190006F927F928F929F92AF92BF92CF92DF9267
:1031A000EF92FF920F931F93CF93DF93CDB7DEB7CC
:1031B0002C970FB6F894DEBF0FBECDBF8C010E94D6
:1031C000C7148090C4039090C503A090C603B0902C
:1031D000C703C12CD12C760181149104A104B10440
:1031E000E1F0C0901E04D0901F04E0902004F09005
:1031F00021048091C0039091C103A091C203B091BA
:10320000C3038C0C9D1CAE1CBF1C881A990AAA0A09
:10321000BB0AC81AD90AEA0AFB0A67E871E0C801C2
:103220000E947F1740911E0450911F04609120045A
:1032300070912104CE0101960E940F18BE016F5FAC
:103240007F4FC8010E948917CE0101960E94BD18C8
:103250006FE872E0C8010E947F174091C40350914B
:10326000C5036091C6037091C703CE0101960E9409
:103270000F18BE016F5F7F4FC8010E948917CE01F2
:1032800001960E94BD186FE872E0C8010E947F1786
:10329000B501A401CE0101960E940F18BE016F5F17
:1032A0007F4FC8010E948917CE0101960E94BD1868
:1032B0006FE872E0C8010E947F17B701A601CE0136
:1032C00001960E940F18BE016F5F7F4FC8010E94D8
:1032D0008917CE0101960E94BD186FE872E0C801FF
:1032E0000E947F178CE3482E512C612C712CC50154
:1032F000B401A30192010E945E38D62E362ECA0177
:10330000B901A30192010E945E38C62E562EC50156
:10331000B40120E13EE040E050E00E945E38CA0186
:10332000B90128E130E040E050E00E945E38762E9E
:10333000662EC501B40120E831E541E050E00E946D
:103340005E3892EBE92E97E0F92EE0E9F1E044E6F1
:10335000842E912C570183E0A822BB24A114B10430
:1033600031F4C701B4010E944A38892B89F4C7019E
:10337000BF010E944A38892B59F08DE691E0281749
:10338000390748F0281B390B8FEFE81AF80AE2CF0B
:103390008EE691E0F4CF8CE0E6E1F1E0DE011196FB
:1033A00001900D928A95E1F7AB2839F4C70164E6E4
:1033B00070E00E944A38892B39F4C70160E971E056
:1033C0000E944A38892B11F48DE18A83AA24A394A0
:1033D000FE01EA0DF11D808190E02817390720F0E9
:1033E000281B390BA394F4CFBB24B394B20EB701BE
:1033F000CE0101960E94E317BE016F5F7F4FC801A7
:103400000E948917CE0101960E94BD1860E971E003
:10341000C8010E947F1789E08A1528F065E871E0ED
:10342000C8010E947F174AE06A2DCE0101960E94D2
:103430006818BE016F5F7F4FC8010E948917CE01D7
:1034400001960E94BD1860E971E0C8010E947F17D3
:1034500089E08B1528F065E871E0C8010E947F17AC
:103460004AE06B2DCE0101960E946818BE016F5F85
:103470007F4FC8010E948917CE0101960E94BD1896
:1034800066EF71E0C8010E947F1789E0861528F079
:1034900065E871E0C8010E947F174AE0672DCE0100
:1034A00001960E946818BE016F5F7F4FC8010E949D
:1034B0008917CE0101960E94BD186BE172E0C80128
:1034C0000E947F1789E0851528F065E871E0C80142
:1034D0000E947F174AE06C2DCE0101960E94681869
:1034E000BE016F5F7F4FC8010E948917CE01019610
:1034F0000E94BD186BE172E0C8010E947F1789E04D
:10350000831528F065E871E0C8010E947F174AE042
:103510006D2DCE0101960E946818BE016F5F7F4F2E
:10352000C8010E948917CE0101960E94BD182C96F1
:103530000FB6F894DEBF0FBECDBFDF91CF911F91C4
:103540000F91FF90EF90DF90CF90BF90AF909F9042
:103550008F907F906F905F904F903F900895EF9283
:10356000FF920F931F93CF93DF93CDB7DEB7A19751
:103570000FB6F894DEBF0FBECDBF7C01CB01BA0100
:10358000F70111821082138212821582148242E0A6
:10359000420F8E010F5F1F4F0E942834009789F061
:1035A000BC01C7010E94D917A1960FB6F894DEBFDF
:1035B0000FBECDBFDF91CF911F910F91FF90EF9084
:1035C0000895C7010E949017EFCF3F924F925F92EC
:1035D0006F927F928F929F92AF92BF92CF92DF9223
:1035E000EF92FF920F931F93CF93DF93CDB7DEB788
:1035F0002B970FB6F894DEBF0FBECDBF7C01DC0168
:1036000015968C91811115C0FE013196CE010C9654
:103610006F0130E23193E817F907E1F7DA0130E0A2
:1036200087E09D91B92E992329F19E3239F48A3091
:1036300011F480E0E3C038E08AE0F3CFE6E8F1E09F
:103640004491442321F031969413FACFF2CF83179B
:1036500080F34FED490F4E3560F74FE9490F4A317E
:1036600018F440EEB42EB90EF601E30FF11DB0824E
:103670003F5FD7CF89818032E1F2322E8B01FB018F
:10368000838D948DD7015C969C938E935B97168265
:103690001782108611861286138614861586F80105
:1036A00082859385A485B585438954896589768902
:1036B00084179507A607B70708F04DC025E0B69513
:1036C000A795979587952A95D1F7F82FFF70AF2E7C
:1036D000D80115968C91823008F4ABCFC8010E94B6
:1036E000520F97FDA6CFF80182859385A485B585F5
:1036F0004F96A11DB11D82879387A487B587F0E2FD
:10370000AF9EB00111246959754F6115710509F417
:1037100090CFDB018C91882341F0853E09F061C098
:10372000BB2029F0BB24B394BACFB1100EC0F7016F
:10373000A28A8091010190910201A0910301B091B0
:10374000040186879787A08BB18BDB018C91811157
:10375000E9CFBB24B394832D8271823109F069CF04
:10376000BB2009F463C0F70166857785808991895C
:1037700041E00E94B906882309F45BCFD701529635
:103780008C91B0E28B9FC00111248959954F00970D
:1037900009F44FCFFC013A9626E1DF011D922A95EC
:1037A000E9F72BE0F601DC0101900D922A95E1F793
:1037B00021E238E2FC01318B208B40E058E0578752
:1037C0004687338B228B318F208F578B468B0E94FD
:1037D0007C06882309F42DCF432DD70152966C9196
:1037E0000AC04BE050E0C6010E94323B892B09F031
:1037F00056CF432D6A2DC7010E94B1152B960FB6E7
:10380000F894DEBF0FBECDBFDF91CF911F910F9116
:10381000FF90EF90DF90CF90BF90AF909F908F90F0
:103820007F906F905F904F903F900895F801858151
:10383000823009F4FECEC8010E944D0A882309F4A3
:10384000F8CED8015B96ED91FC915C9716968D9021
:103850009D90AD90BC901997B2E08B1A9108A10889
:10386000B108858504C0880C991CAA1CBB1C8A95CC
:10387000D2F786859785A089B189880E991EAA1EE0
:10388000BB1E848124013501480E511C611C711C32
:1038900084149504A604B70401F1E1E04E1A51081E
:1038A000610871080E947C06882309F4C2CEE7E60D
:1038B000FAE0119287E69CE08E179F07D1F74092BD
:1038C0000101509202016092030170920401809103
:1038D0000F04816080930F04DBCFD8015B96ED91DC
:1038E000FC91258580E092E0A0E0B0E004C0880F64
:1038F000991FAA1FBB1F2A95D2F7F8014389548943
:1039000065897689840F951FA61FB71F838B948BBB
:10391000A58BB68BD70152961C9287E69AE03ACFD8
:10392000EF92FF920F931F93CF93DF93EC017B01F4
:103930008A011B821A8288EE93E0A0E0B0E08C83BB
:103940009D83AE83BF8386E291E0998388838DE176
:1039500090E00E942C399A8F898F009779F02DE1A1
:10396000F701DC0101900D922A95E1F74CE050E05F
:10397000B801CE010C960E945A3B188EDF91CF9170
:103980001F910F91FF90EF9008952F923F924F92C9
:103990005F926F927F928F929F92AF92BF92CF92DF
:1039A000DF92EF92FF920F931F93CF93DF93CDB7E8
:1039B000DEB7C457D1090FB6F894DEBF0FBECDBF36
:1039C00020910501222309F4E8C03C0161E08EE06A
:1039D0000E947E020E948E0B811107C082E991E055
:1039E0000E94721610920501D0C0A090000EB090F7
:1039F000010E4E018EE1880E911C6FEC7DE0C4013A
:103A00000E94A60E1C821B8284E591E09A83898322
:103A10001E8265018E010F5F1F4F240118016FE2A6
:103A200070E0C6010E94483B009709F45BC0F601B4
:103A300020812F3271F4FFEFCF1ADF0A902F812FF0
:103A40008201492E582E942D852D2801092F182FDB
:103A5000E6CF8C198D3008F08CE0E82EF12CA70110
:103A6000B601CE01885A9F4F0E945A3BE8E5F0E02C
:103A7000EC0FFD1FEE0DFF1D1082C8010E94820B8E
:103A800021E0AE01485A5F4FB201C8010E94E51A19
:103A9000811122C01EAE1DAE84E591E09CAF8BAFBC
:103AA00021961FAE2197E596EEADFFADE597AE0EE0
:103AB000BF1EF5018081811122C0BE01655C7F4F70
:103AC000C1010E94A60E41EA51E0B101CE01885A1F
:103AD0009F4F0E94901C3AC0CE0CDF1CC2010E9476
:103AE000820BB1CFC6018A199B09E5969FAF8EAFB5
:103AF000E597B201CE01CB960E94A60ED4CF19A2B3
:103B000018A284E591E09F8F8E8F1BA221968FAD26
:103B1000219781115CC06C961FAE1EAE6C9788EE2B
:103B200093E0A0E0B0E0A0968CAF9DAFAEAFBFAF8A
:103B3000A09786E291E06A969FAF8EAF6A97E39670
:103B40001FAE1EAEE397A5961FAEA597E396EEAD0A
:103B5000FFADE397309709F462C08581882309F4AB
:103B60005EC0B301CE01885A9F4F0E940E17E396A4
:103B70008EAD9FADE397009741F00E94820BE396D4
:103B80008EAD9FADE3970E94C83961E084E00E944A
:103B90007E0260E08EE00E947E02CC58DF4F0FB6BE
:103BA000F894DEBF0FBECDBFDF91CF911F910F9173
:103BB000FF90EF90DF90CF90BF90AF909F908F904D
:103BC0007F906F905F904F903F902F90089582501C
:103BD00023E1A5018230A8F46FEC7DE0C4010E94CE
:103BE000E51A882309F497CF49A95AA96BA97CA99A
:103BF000C4010E94B909B401C1010E94A60EA50129
:103C000064CFBE01655C7F4FC4010E94E51A882322
:103C100009F481CFCE01CB960E94820BE5CF83EAD7
:103C200091E0DECE3F924F925F926F927F928F92A1
:103C30009F92AF92BF92CF92DF92EF92FF920F933B
:103C40001F93CF93DF93CDB7DEB7C654D1400FB6E5
:103C5000F894DEBF0FBECDBF14B714BE0FB6F894F4
:103C6000A895809160008861809360001092600048
:103C70000FBEE091160DF091170D32E03083E09108
:103C8000120DF091130D1082E091140DF091150DAD
:103C900028E0208310921E0DE0911A0DF0911B0D6B
:103CA00096E09083E091180DF091190D808188695C
:103CB0008083E091180DF091190D80818F7D8083B4
:103CC000E091790CF0917A0C3083E091750CF091D1
:103CD000760C1082E091770CF091780C2083109292
:103CE000810CE0917D0CF0917E0C9083E0917B0C37
:103CF000F0917C0C808188698083E0917B0CF0914D
:103D00007C0C80818F7D808380E28093B8008FEA75
:103D100091E00E94721668EB71E089E69CE00E94D7
:103D20001D16612F70E090E080E042E00E942C16AA
:103D30006EE671E089E69CE00E941D1668EF71E076
:103D400089E69CE00E941D160E94F013682F70E027
:103D500090E080E042E00E942C166EE671E089E679
:103D60009CE00E941D1667E072E089E69CE00E94DC
:103D70001D160E94FF13682F70E090E080E042E083
:103D80000E942C166EE671E089E69CE00E941D16EA
:103D900060E08BE10E94AC0260E085E10E94AC0231
:103DA00060E08DE10E94AC0260E08EE10E94AC0216
:103DB00061E086E10E94AC0261E087E10E94AC0212
:103DC00060E080E00E94AC0261E08FE00E94AC0203
:103DD00061E08CE00E94AC0261E08DE00E94AC02E8
:103DE00061E08EE00E94AC0261E082E10E94AC02E0
:103DF00061E082E10E947E0261E084E10E94AC0207
:103E000061E082E00E94AC0261E082E00E947E02FA
:103E100061E08AE10E94AC0261E08AE10E947E02D8
:103E200061E083E10E94AC0261E083E00E94AC02A9
:103E300061E084E00E94AC0260E085E00E94AC0298
:103E400060E086E00E94AC0261E087E00E94AC0284
:103E500061E083E10E947E0261E084E00E947E02D4
:103E600060E087E00E947E0264E670E080E090E01F
:103E70000E940A0360E083E00E947E0261E084E128
:103E80000E94AC0260E084E10E947E0280E00E9419
:103E90006D1264E670E080E090E00E940A0386E123
:103EA0000E94A814182F082F0F7D602F86E10E9412
:103EB000D81262E370E080E090E00E940A03602F75
:103EC000606486E10E94D81268EC70E080E090E0C7
:103ED0000E940A03612F6F7986E10E94D81264E183
:103EE00070E080E090E00E940A0387E20E94A8143C
:103EF000682F6F7E87E20E94D81286E20E94A81483
:103F00008F7C682F626C86E20E94D81262E370E0B8
:103F100080E090E00E940A038AE60E94ED0160E3DF
:103F20008EEE9DE00E94151180E00E94950142E016
:103F30006AE68EEE9DE00E94EF128091170A909142
:103F4000180A891B990B30E020E002974CF00E9480
:103F50000A028C010E940A0220E0382F202B312B0C
:103F6000369527953F70A7ECB0E00E942B3824E6E9
:103F700030E040E050E00E945E383093C903209367
:103F8000C80381E02C3D354008F480E080930001B7
:103F90000E946D128BE10E945502892B09F46DC0BD
:103FA00040E060E081E00E943D0361E08CE00E941F
:103FB0007E0260E08DE00E947E0260E08EE00E9462
:103FC0007E020E94F01398E12FE00FB6F894A895B6
:103FD000909360000FBE2093600081110E949314A3
:103FE000A89568EE73E080E090E00E940A03A8952F
:103FF00068EE73E080E090E00E940A03A89568EE06
:1040000073E080E090E00E940A03A89510E001E0D0
:10401000FF24F394EE24E39485E10E9455025C01B1
:104020000E94F013D82E682F6E258DE00E947E022C
:10403000A895AB2809F4BCC3DD2009F4B9C30E94DC
:104040009314D82E682F70E090E080E04AE00E9440
:104050002C166EE671E089E69CE00E941D16E0E1F8
:10406000ED1508F4A4C31F5F1B3008F4A1C38DE154
:1040700092E00E9472160E942A148EE10E9455025C
:10408000892B09F48DCF61E084E10E947E0240E03B
:1040900060E081E00E943D0361E08CE00E947E02CE
:1040A00008EC10E084EB90E00E94DD0261E08FE01C
:1040B0000E947E0284EB90E00E94DD0260E08FE0CF
:1040C0000E947E020150110969F7A8958AE392E0E7
:1040D0000E94721660E087E10E947E0261E086E144
:1040E0000E947E0281E50E94ED0167E28EEE9DE076
:1040F0000E94151163E08EEE9DE00E94151167E9A4
:104100008EEE9DE00E9415118EEE9DE00E944911F9
:10411000A89581E50E94ED0163E28EEE9DE00E948C
:10412000151160E08EEE9DE00E94151160E08EEEAC
:104130009DE00E94151165E08EEE9DE00E94151134
:1041400060E08EEE9DE00E94151163E08EEE9DE032
:104150000E94151167E98EEE9DE00E94151160E046
:104160008EEE9DE00E94151160E08EEE9DE00E94B3
:1041700015118EEE9DE00E9449110FB6F894A89596
:1041800080916000886180936000109260000FBE93
:1041900088E199E20FB6F894A895809360000FBE6D
:1041A000909360000E94C71463E472E089E69CE08B
:1041B0000E941D1660911E0470911F0480912004BE
:1041C000909121044AE00E942C166EE671E089E687
:1041D0009CE00E941D16BE016F5F7F4F81E7FB01CF
:1041E00011928A95E9F780E50E942829882309F42D
:1041F00060C38AA59BA5ACA5BDA58093C40390937D
:10420000C503A093C603B093C7038EA59FA5A8A915
:10421000B9A98093C0039093C103A093C203B09344
:10422000C3038E010E581F4F81E7F80111928A9542
:10423000E9F7B80183E50E942829811104C082E6CC
:1042400092E00E9472160E9439126DE772E0CE0170
:104250008D519F4F0E94AC1840910A0E50910B0E49
:104260006091060E7091070ECE018D519F4F0E94F6
:104270005317811105C0CE018D519F4F0E94901799
:104280006DE872E0CE018D519F4F0E94A2177C0114
:104290004091100E5091110E60910C0E70910D0E08
:1042A0000E945317811103C0C7010E9490176FE845
:1042B00072E0C7010E94A217BC018AEF9DE00E9434
:1042C0009518CE018D519F4F0E94BD1861E972E093
:1042D0008AEF9DE00E947F1788E50E94A7296FE87A
:1042E00072E08AEF9DE00E947F1740E16981CE0174
:1042F0008D519F4F0E946818BE016D517F4F8AEF0C
:104300009DE00E948917CE018D519F4F0E94BD18DC
:1043100040E16A81CE018D519F4F0E946818BE0115
:104320006D517F4F8AEF9DE00E948917CE018D511C
:104330009F4F0E94BD1867EA72E08AEF9DE00E94DD
:104340007F177E01FBE0EF0EF11C6E0183E2C80EC9
:10435000D11CF70181917F018823B1F0CD51DF4F4E
:104360008883C35ED040CC51DF4F1882C45ED040FA
:1043700041E050E0BE016D517F4F8AEF9DE00E9409
:104380005317CE14DF0429F764EB72E08AEF9DE047
:104390000E947F178BE50E94A7296FE872E08AEFE1
:1043A0009DE00E947F1740E1F8016081CE018D51B0
:1043B0009F4F0E946818BE016D517F4F8AEF9DE0AC
:1043C0000E948917CE018D519F4F0E94BD1840E178
:1043D000F8016181CE018D519F4F0E946818BE0186
:1043E0006D517F4F8AEF9DE00E948917CE018D515C
:1043F0009F4F0E94BD1868EC72E08AEF9DE00E941A
:104400007F177801FAE0EF0EF11C0E5D1F4FF701E8
:1044100081917F018823B1F0CD51DF4F8883C35E46
:10442000D040CC51DF4F1882C45ED04041E050E014
:10443000BE016D517F4F8AEF9DE00E9453170E150C
:104440001F0529F765ED72E08AEF9DE00E947F1756
:10445000CD52DF4F488159816A817B81C35DD04055
:1044600026E0CE018D519F4F0E94AF1ABE016D51C3
:104470007F4F8AEF9DE00E948917CE018D519F4F9B
:104480000E94BD186FE872E08AEF9DE00E947F17DE
:10449000C952DF4F488159816A817B81C75DD04015
:1044A00026E0CE018D519F4F0E94AF1ABE016D5183
:1044B0007F4F8AEF9DE00E948917CE018D519F4F5B
:1044C0000E94BD186FE872E08AEF9DE00E947F179E
:1044D000C552DF4F488159816A817B81CB5DD040D5
:1044E00026E0CE018D519F4F0E94AF1ABE016D5143
:1044F0007F4F8AEF9DE00E948917CE018D519F4F1B
:104500000E94BD186FE872E08AEF9DE00E947F175D
:10451000C152DF4F488159816A817B81CF5DD04094
:10452000CE018D519F4F0E940F18BE016D517F4FDC
:104530008AEF9DE00E948917CE018D519F4F0E9406
:10454000BD186FED72E08AEF9DE00E947F178091A9
:1045500000016DEA71E0811102C065E871E08AEF47
:104560009DE00E947F176FE872E08AEF9DE00E9455
:104570007F176091C8037091C903CE018D519F4F81
:104580000E94E317BE016D517F4F8AEF9DE00E94AC
:104590008917CE018D519F4F0E94BD186AEF7DE0B3
:1045A00089E69CE00E940E1780911E0490911F04E2
:1045B000A0912004B09121044091C4035091C503FF
:1045C0006091C6037091C703840F951FA61FB71F84
:1045D0004091C0035091C1036091C2037091C30325
:1045E000841B950BA60BB70B8093150490931604B0
:1045F000A0931704B093180410921A04109219048F
:104600000E948E0B811106C082E991E00E94721611
:104610001092050181E090E090931C0480931B04AC
:104620007E01F3EEEF1AFEEFFF0A84E5A82E81E08B
:10463000B82E60911B0470911C04683C710508F051
:10464000CAC1CE0193950E94E317CD51DF4F198265
:104650001882C35ED040CB51DF4F19821882C55EED
:10466000D040C951DF4F19821882C75ED040BE01C9
:104670007395CE018D519F4F0E94951868EE72E0A0
:10468000CE018D519F4F0E94A217BC0180E09EE099
:104690000E949518CE018D519F4F0E94BD18CE01EA
:1046A00093950E94BD18C090000ED090010EF701A6
:1046B00013821282B182A0821582CE5FDE4F1982F0
:1046C0001882C250D140C050DF4FB982A882C0507A
:1046D000D140CB5FDE4F1882C550D140512C412CC8
:1046E0007E2C6F2C0FEC1DE0852D942DF601E80F2C
:1046F000F91F20812F3209F40196D601A80FB91FA6
:10470000FE01E65CFE4F30E020E04F014D914F325C
:1047100049F0442339F001962F5F3F4F41932C30ED
:104720003105A1F7280D391DF9011082F601E80FB6
:10473000F91F20812F3209F40196582E492E8C0D35
:104740009D1DFC013080CB51DF4F19821882C55E60
:10475000D040CD51DF4FB982A882C35ED040C8514E
:10476000DF4F1882C85ED04021E0A401B801CE011D
:104770008D519F4F0E94E51A882309F425C1CE016F
:104780008D519F4F0E94820B3110A8C08DE00F3CCD
:10479000180719F0C8010E94820B80911B049091A8
:1047A0001C04019690931C0480931B0442CF10E0DC
:1047B000A895002309F453C028ECC22ED12C8AEF0F
:1047C00090E00E94DD0261E08FE00E947E028AEFAD
:1047D00090E00E94DD0260E08FE00E947E02F1E046
:1047E000CF1AD10861F798ECC92ED12C84EB90E058
:1047F0000E94DD0261E08FE00E947E0284EB90E087
:104800000E94DD0260E08FE00E947E0281E0C81A13
:10481000D10861F7FF2079F161E08EE00E947E020D
:1048200060E084E10E947E0261E083E00E947E02FB
:1048300081E70E94ED0160E08EEE9DE00E9415117F
:1048400063E18EEE9DE00E9415118EEE9DE00E94C8
:10485000491168EE73E080E090E00E940A038EE167
:104860000E94550200E0892B09F0D6CBFE240E945D
:10487000851601E0D1CB60E08EE00E947E0261E00F
:1048800084E10E947E0281E70E94ED0160E08EEEED
:104890009DE00E94151160E18EEE9DE00E941511D1
:1048A0008EEE9DE00E94491160E083E00E947E024E
:1048B000D0CF8EE492E00E9472161092C403109240
:1048C000C5031092C6031092C7031092C003109242
:1048D000C1031092C2031092C303A3CC21E0A40130
:1048E000B801872D962D0E94E51A982EFDE00F3C09
:1048F0001F0709F457C2C8010E94820B911057C2CA
:104900006AC00E94C71466E273E0CE0193950E94CC
:10491000AC1840911E0450911F04609120047091C6
:104920002104CE018D519F4F0E940F18BE016D5181
:104930007F4FCE0193950E948917CE018D519F4FD5
:104940000E94BD1866EB71E0CE0193950E947F171F
:104950004AE060911D04CE018D519F4F0E9468185E
:10496000BE016D517F4FCE0193950E948917CE01F4
:104970008D519F4F0E94BD1868E473E0CE0193955E
:104980000E947F17103130F465E871E0CE019395F5
:104990000E947F1740E1612FCE018D519F4F0E94F1
:1049A0006818BE016D517F4FCE0193950E94891703
:1049B000CE018D519F4F0E94BD186EE373E0CE0172
:1049C00093950E947F1775C19DE00F3C190719F060
:1049D000C8010E94820B80911B0490911C04883CAA
:1049E000910521F48DEE92E00E94721640E061E0A4
:1049F00080E00E943D0361E08DE00E947E0262E162
:104A000073E089E69CE00E941D1660E07EE089E686
:104A10009CE00E940E17C050DF4F19821882C050D0
:104A2000D140CE5FDE4F19821882C250D140CC5F98
:104A3000DE4F19821882C450D1406AEF7DE0CE016A
:104A400093950E949518CE0193950E94C5186DE12B
:104A500073E0CE0193950E947F17609119047091C5
:104A60001A04CE018D519F4F0E94E317BE016D5174
:104A70007F4FCE0193950E948917CE018D519F4F94
:104A80000E94BD186FE872E0CE0193950E947F17D7
:104A90004091150450911604609117047091180408
:104AA000CE018D519F4F0E940F18BE016D517F4F57
:104AB000CE0193950E948917CE018D519F4F0E9480
:104AC000BD18CE0193950E94C51CCE0193950E94FE
:104AD000BD1887E00E948729182F88E20E94872945
:104AE000082F807117FD02C081110BCF81E50E9454
:104AF000ED0163E28EEE9DE00E94151160E08EEE06
:104B00009DE00E94151160E08EEE9DE00E9415115F
:104B100065E08EEE9DE00E94151160E08EEE9DE056
:104B20000E94151160E08EEE9DE00E94151167E96C
:104B30008EEE9DE00E94151160E08EEE9DE00E94D9
:104B4000151160E08EEE9DE00E9415118EEE9DE045
:104B50000E94491181E50E94ED018FE290E00E94E0
:104B600044118CE290E00E9444118EEE9DE00E9480
:104B7000491181E50E94ED0188E290E00E94441114
:104B800087E990E00E9444118EEE9DE00E94491159
:104B900081E50E94ED0160E08EEE9DE00E9415111E
:104BA00060E08EEE9DE00E94151160E08EEE9DE0CB
:104BB0000E94151160E08EEE9DE00E94151160E0EC
:104BC0008EEE9DE00E94151160E08EEE9DE00E9449
:104BD000151160E08EEE9DE00E9415118EEE9DE0B5
:104BE0000E9449110E94C71466E273E0CE019395BA
:104BF0000E94AC1840911E0450911F046091200443
:104C000070912104CE018D519F4F0E940F18BE015B
:104C10006D517F4FCE0193950E948917CE018D5122
:104C20009F4F0E94BD1866EB71E0CE0193950E94E4
:104C30007F174AE060911D04CE018D519F4F0E9465
:104C40006818BE016D517F4FCE0193950E94891760
:104C5000CE018D519F4F0E94BD186FE273E0CE01CF
:104C600093950E947F17103130F465E871E0CE0112
:104C700093950E947F1740E1612FCE018D519F4F88
:104C80000E946818BE016D517F4FCE0193950E941E
:104C90008917CE018D519F4F0E94BD186EE373E0BE
:104CA000CE0193950E947F1765E871E0003108F40A
:104CB00086CE40E1602FCE018D519F4F0E94681833
:104CC000BE016D517F4FCE0193950E948917CE0191
:104CD0008D519F4F0E94BD18BE01739589E69CE0DF
:104CE0000E940E17CE0193950E94C51CCE0193958C
:104CF0000E94BD180E942B1260E084E10E947E0297
:104D000041E060E080E00E943D0360E08CE00E94B2
:104D10007E0260E08DE00E947E0260E082E00E9400
:104D20007E020FB6F894A895809160008861809308
:104D30006000109260000FBEF894109280008DE029
:104D40008093810087E998E9909389008093880097
:104D5000109285001092840082E080936F00109280
:104D6000900085E08093910010929500109294003D
:104D70007894CA5BDE4F0FB6F894DEBF0FBECDBF8E
:104D8000DF91CF911F910F91FF90EF90DF90CF9027
:104D9000BF90AF909F908F907F906F905F904F905B
:104DA0003F900895882309F416CE8E011395902F15
:104DB000812F072D162D3C0197CC1F920F920FB615
:104DC0000F9211242F933F938F939F93AF93BF9391
:104DD00080910F0A9091100AA091110AB091120AC5
:104DE00030910E0A26E0230F2D3768F129E8230FB2
:104DF0000396A11DB11D20930E0A80930F0A909374
:104E0000100AA093110AB093120A8091130A90918C
:104E1000140AA091150AB091160A0196A11DB11DA0
:104E20008093130A9093140AA093150AB093160A5C
:104E3000BF91AF919F918F913F912F910F900FBE96
:104E40000F901F9018950296A11DB11DD4CF1F92EF
:104E50000F920FB60F9211240BB60F922F933F9320
:104E60004F935F936F937F938F939F93AF93BF9372
:104E7000EF93FF9389E69CE00E942304FF91EF915A
:104E8000BF91AF919F918F917F916F915F914F9162
:104E90003F912F910F900BBE0F900FBE0F901F9060
:104EA00018951F920F920FB60F9211240BB60F9206
:104EB0002F938F939F93EF93FF93E091790CF09151
:104EC0007A0C8081E0917F0CF091800C82FD1DC0F6
:104ED00090818091820C8F5F8F732091830C821759
:104EE00041F0E091820CF0E0E759F34F958F809309
:104EF000820CFF91EF919F918F912F910F900BBE9C
:104F00000F900FBE0F901F9018958081F2CF1F92C7
:104F10000F920FB60F9211240BB60F922F933F935F
:104F20004F935F936F937F938F939F93AF93BF93B1
:104F3000EF93FF9386E09DE00E942304FF91EF91A1
:104F4000BF91AF919F918F917F916F915F914F91A1
:104F50003F912F910F900BBE0F900FBE0F901F909F
:104F600018951F920F920FB60F9211240BB60F9245
:104F70002F938F939F93EF93FF93E091160DF091F2
:104F8000170D8081E0911C0DF0911D0D82FD1DC05B
:104F9000908180911F0D8F5F8F732091200D82175C
:104FA00041F0E0911F0DF0E0EA5FF24F958F8093A2
:104FB0001F0DFF91EF919F918F912F910F900BBE3D
:104FC0000F900FBE0F901F9018958081F2CF1F9207
:104FD0000F920FB60F9211240BB60F922F933F939F
:104FE0004F935F936F937F938F939F93AF93BF93F1
:104FF000EF93FF938091B900887F803609F44DC00C
:1050000008F040C0883209F4A7C028F5803109F4BF
:105010009BC0C8F4882309F403C1883009F494C004
:10502000FF91EF91BF91AF919F918F917F916F9180
:105030005F914F913F912F910F900BBE0F900FBE3C
:105040000F901F901895883109F486C0803241F77F
:105050008093630A14C0803409F4A3C040F4803301
:10506000B9F38833E9F68093630A85ECBAC08035DA
:1050700009F487C0883509F49CC0883489F60E94F9
:10508000A010CECF883909F492C038F5883729F0BE
:1050900050F4883611F0803719F683E08093650A62
:1050A00010920C0455C0883809F481C0803919F079
:1050B000803809F0B5CF80910C04803208F077C0B9
:1050C000E0910C0481E08E0F80930C048091BB0072
:1050D000F0E0E451FC4F80833BC0803B39F0D0F4DA
:1050E000803A09F483C0883A09F09ACF84E080932B
:1050F000650A1092EB031092EA03F0E0E0E00995F4
:105100008091EA0381110FC081E08093EA0310923D
:10511000CA0309C0803C09F4A8CF883C09F4A5CF94
:10512000883B09F07DCFE091EB0381E08E0F809307
:10513000EB03F0E0E653FC4F80818093BB0090913D
:10514000EB038091EA0331C080915E0A8093BB003B
:1051500085EC8093BC0064CF9091600A80915F0AD7
:105160009817B8F58091610A9091620AE091600AFF
:1051700021E02E0F2093600AE80FF92FF11D8081A6
:10518000E5CF2091610A3091620AE091600A81E0E6
:105190008E0F8093600A8091BB00E20FF32FF11D08
:1051A00080839091600A80915F0A981788F285E861
:1051B000D0CF2091610A3091620AE091600A81E0CB
:1051C0008E0F8093600A8091BB00E20FF32FF11DD8
:1051D00080838091640A811152CF81E080935D0ABF
:1051E00084EA8093BC001092650A1ACF85EC809304
:1051F000BC001092650A80910C04803230F4E0917A
:105200000C04F0E0E451FC4F108260910C0470E05B
:105210008CEE93E0F0E0E0E0099510920C0400CFF2
:105220001092630A2CCF1F920F920FB60F92112487
:105230008F938091AB078F5F8093AB0710928500AF
:10524000109284008F910F900FBE0F901F901895B1
:10525000CF92DF92EF92FF920F931F93CF93DF9342
:10526000D82F7B010E94ED0160E08EEE9DE00E9450
:10527000151160E08EEE9DE00E9415118EEE9DE00E
:105280000E944911C0E081E7C82ED12C0C2F10E0FC
:10529000A601401B510B4131510510F040E150E097
:1052A0006D2F8EEE9DE00E94EF120E0D1F1D90914E
:1052B000170A8091180A981749F0C137D8F40E944C
:1052C0000A02CF5FF80181938F01F1CFC13790F4CB
:1052D0008D2F0E94ED0160E08EEE9DE00E94151181
:1052E0006C2F8EEE9DE00E9415118EEE9DE00E94C7
:1052F0004911CCCF81E0C13709F080E0DF91CF9137
:105300001F910F91FF90EF90DF90CF900895CF9372
:10531000C82F81E50E94ED016C2F8EEE9DE00E946A
:1053200015118EEE9DE00E94491141E061E58EEE7F
:105330009DE00E94EF129091170A8091180A981729
:1053400021F00E940A02CF9108958FEFFCCF0F93B6
:105350001F93CF93DF9300D000D000D0CDB7DEB73E
:10536000182F0E94ED0188E090E00E94441190E027
:1053700080E00E9444118EEE9DE00E94491160E1A0
:1053800070E0812F90E00E94721510E10E940A02E5
:10539000082F803130F465E871E08AEF9DE00E94CB
:1053A0007F1740E1602FCE0101960E946818BE0170
:1053B0006F5F7F4F8AEF9DE00E948917CE010196B3
:1053C0000E94BD18115011F726960FB6F894DEBF53
:1053D0000FBECDBFDF91CF911F910F910895E9E6E8
:1053E000FCE01382128288EE93E0A0E0B0E08483B8
:1053F0009583A683B78322E431E0318320834DEC8B
:1054000050E0558744874CEC50E05787468748EC7E
:1054100050E0518B408B49EC50E0538B428B4AEC6F
:1054200050E0558B448B4EEC50E0578B468B118EE1
:10543000128E138E148EE6E0FDE0138212828483B6
:105440009583A683B7833183208325EC30E03587AD
:10545000248724EC30E03787268720EC30E0318B3E
:10546000208B21EC30E0338B228B22EC30E0358B2B
:10547000248B26EC30E0378B268B118E128E138E08
:10548000148EE3EAFDE020E5208321E02183E5EAB4
:10549000FDE0158216821186138642E050E060E03E
:1054A00070E0448755876687778713A215A614A6F0
:1054B00024E531E033A722A717A6EEEEFDE0138224
:1054C000128284839583A683B78380E691E09183DB
:1054D000808365E573E08CE09EE00E94AC1866E88E
:1054E00073E086E09EE00E94AC1860E771E080E027
:1054F0009EE00E94AC1860E771E08AEF9DE00C949A
:10550000AC18CF93DF93CDB7DEB7C359D1090FB62F
:10551000F894DEBF0FBECDBF789484B5836084BDA0
:1055200085B5836085BD80916E00816080936E003B
:1055300082E080938100809181008160809381006E
:10554000809180008160809380008091B1008460B0
:105550008093B1008091B00081608093B000809111
:10556000910083608093910080919000816080938E
:10557000900086E880937A001092C1000E94121E6B
:105580001092070A1092060A1092090A1092080A4D
:1055900010920B0A10920A0A10920D0A10920C0A2D
:1055A00081E090E09093050A8093040A61E087E12E
:1055B0000E947E0260E086E10E947E020E94380125
:1055C00061E086E10E947E021092850010928400C4
:1055D000909194008091950089279827892790932E
:1055E000AD078093AC071092AB071092AA071092F8
:1055F000A907189B02C00C94CE338091AB07823070
:10560000C0F38EE10E945502892B29F508EC10E0C9
:1056100086E990E00E94DD0261E08FE00E94AC022A
:1056200061E08FE00E947E0286E990E00E94DD0248
:1056300061E08FE00E94AC0260E08FE00E947E0299
:105640000150110929F78091A80791E089278093DB
:10565000A8070E9485161092AB078091AA078F5F5A
:105660008093AA078091A9078F5F8093A9078BE198
:105670000E945502682F8DE00E947E028BE10E94FD
:105680005502892B11F00E942A1461E086E10E94E4
:105690007E0260E087E10E947E0288E199E20FB617
:1056A000F894A895809360000FBE909360000E94CC
:1056B00039120E94C71460E771E0CE01885A9F4FEB
:1056C0000E94AC1867E973E0CE01885A9F4F0E9490
:1056D0007F176091A6077091A707CE0101960E94DF
:1056E000E317BE016F5F7F4FCE01885A9F4F0E9424
:1056F0008917CE0101960E94BD186FE872E0CE01B5
:10570000885A9F4F0E947F176091AC077091AD0738
:10571000CE0101960E94E317BE016F5F7F4FCE015D
:10572000885A9F4F0E948917CE0101960E94BD188A
:1057300024E2E22E24E0F22E3BE7A32E36E0B32E45
:105740004EEAC42E47E0D42E01E010E08091040A16
:105750009091050A0817190708F054C00C3221E08F
:10576000120709F44FC0D5018D915D01F6014190FA
:1057700051906F01712C612C882331F0F7E94F0EA5
:10578000F8E95F1E611C711C6EE671E0CE01885A5B
:105790009F4F0E947F176FE973E0CE01885A9F4F99
:1057A0000E947F17B301A201CE0101960E940F183B
:1057B000BE016F5F7F4FCE01885A9F4F0E948917AD
:1057C000CE0101960E94BD186FE872E0CE01885AA2
:1057D0009F4F0E947F17D7016D917D917D01CE0172
:1057E00001960E94E317BE016F5F7F4FCE01885A7A
:1057F0009F4F0E948917CE0101960E94BD180F5F2E
:105800001F4FA4CF63EA73E0CE01885A9F4F0E94D6
:105810007F176091A6077091A707CE0101960E949D
:10582000E317BE016F5F7F4FCE01885A9F4F0E94E2
:105830008917CE0101960E94BD186FE872E0CE0173
:10584000885A9F4F0E947F1740911E0450911F0459
:105850006091200470912104CE0101960E940F18DE
:10586000BE016F5F7F4FCE01885A9F4F0E948917FC
:10587000CE0101960E94BD1866EB71E0CE01885AF8
:105880009F4F0E947F174AE060911D04CE01019650
:105890000E946818BE016F5F7F4FCE01885A9F4FEC
:1058A0000E948917CE0101960E94BD186FE872E030
:1058B000CE01885A9F4F0E947F178091940060917B
:1058C0009500762F682FCE0101960E94E317BE0146
:1058D0006F5F7F4FCE01885A9F4F0E948917CE017C
:1058E00001960E94BD186FE872E0CE01885A9F4F62
:1058F0000E947F176091040A7091050A6150710936
:10590000CE0101960E94E317BE016F5F7F4FCE016B
:10591000885A9F4F0E948917CE0101960E94BD1898
:1059200006E01AE09EE0E92E9AE0F92E6FE872E0B8
:10593000CE01885A9F4F0E947F17F80161917191A3
:105940008F01CE0101960E94E317BE016F5F7F4F6A
:10595000CE01885A9F4F0E948917CE0101960E945E
:10596000BD18E016F10611F7BE01685A7F4F89E6AF
:105970009CE00E940E17CE01885A9F4F0E94C51CC2
:1059800080910501811146C061E08DE00E947E0298
:105990006E96EEACFFAC6E9710E000E0DD24DA947A
:1059A0008DE10E945502892B19F0DA94D110F8CFBD
:1059B00082E390E00E94DD026801FFEFCF1ADF0A68
:1059C0006E968EAD9FAD6E970817190740F46A96D4
:1059D0008EAD9FAD6A97080F191F892B21F4109285
:1059E000140404E114E0D8016C9186E09DE00E946B
:1059F0004504EC14FD0408F0E1C26EE671E086E0B7
:105A00009DE00E941D16BE01685A7F4F89E69CE00A
:105A10000E940E1760E08EE00E947E0260E08DE042
:105A20000E947E028091A6079091A707893F9A4223
:105A300008F497C01092A7071092A60760911B0464
:105A400070911C046F5F7F4F70931C0460931B0464
:105A5000CE01CC960E94E3171A8219821C821B8207
:105A60001E821D82BE01645C7F4FCE0101960E94A2
:105A7000951868EE72E0CE0101960E94A217BC0153
:105A800080E09EE00E949518CE0101960E94BD180C
:105A9000CE01CC960E94BD188091190490911A04F1
:105AA000019690931A048093190462E173E089E6E9
:105AB0009CE00E941D1660E07EE089E69CE00E946A
:105AC0000E171DAE1CAE1FAE1EAE22961FAE1EAE32
:105AD00022976AEF7DE0CE01CC960E949518CE0108
