:100000000C940C010C9436010C9436010C943601BE
:100010000C9436010C9436010C9436010C94360184
:100020000C9436010C9436010C9436010C94360174
:100030000C9436010C9425290C9436010C9436014D
:100040000C9436010C9436010C94EF260C94360176
:100050000C94C3270C9499270C9436010C94360108
:100060000C9436010C9436010C94F9270C9436014B
:100070000C9463270C9439270C9436010C943601A8
:100080000C9436010C9436010C94360100407A1021
:10009000F35A00A0724E18090010A5D4E80000E839
:1000A0007648170000E40B54020000CA9A3B000097
:1000B00000E1F505000080969800000040420F0026
:1000C0000000A08601000000102700000000E803E7
:1000D000000000006400000000000A0000000000B2
:1000E0000100000000002C76D888DC674F0823DF71
:1000F000C1DFAE59E1B1B796E5E3E453C63AE65144
:10010000997696E8E6C28426EB898C9B62ED407C6A
:100110006FFCEFBC9C9F40F2BAA56FA5F490055A06
:100120002AF75C936B6CF9676DC11BFCE0E40D472B
:10013000FEF520E6B500D0ED902E0300943577054E
:100140000080841E080000204E0A000000C80C3306
:100150003333330F986E12831141EF8D2114893B95
:10016000E65516CFFEE6DB18D1844B381BF77C1D15
:10017000901DA4BBE424203284725E228100C9F168
:1001800024ECA1E53D277C3C3E5E2B3D3F2F5B5D93
:100190003B2C2A225C0000002200250028002B00B6
:1001A00000002000230026002900000000020300B8
:1001B0000A0B000000000504090800000000000010
:1001C00000000000000000000000000021002400EA
:1001D00027002A00010204081020408001020408C0
:1001E0001020408001020408102040800102040811
:1001F00010204080020202020202020204040404EF
:1002000004040404030303030303030301010101C2
:1002100001010101012A2A3411241FBECFEFD0E4CD
:10022000DEBFCDBF2EE0A0E1B4E001C01D92AC3630
:10023000B207E1F714E0A0E0B1E0E0E1F7E700E0A9
:100240000BBF02C007900D92A031B107D9F711E0A2
:10025000CBE0D1E004C02197FE010E949238CA3061
:10026000D107C9F70E94932A0C947B3B0C940000A1
:100270000CB405FC0DC01EBC00000DB407FEFDCF84
:100280009EB51EBC00000DB407FEFDCF8EB50895CF
:100290001EBC00000DB407FEFDCF8EB51EBC0000D5
:1002A0000DB407FEFDCF9EB50895982F8091BB0A2F
:1002B0008111FCCF81E08093BB0A8093BA0A2FEFB3
:1002C0002093B90A23E93AE03093B80A2093B70A99
:1002D0001092B60A2FEF260F2093B50A8093B40A26
:1002E0008091B40A990F982B9093B40A8091B30A25
:1002F0008130C9F41092B30A8091B40A8093BB0094
:100300008091BC0083FDF8CF85EC8093BC00809188
:10031000BB0A8130E1F38091B60A861710F4609130
:10032000B60A862F089585EEF0CF282F9091920A75
:1003300081E0913208F042C08091BB0A8111FCCF6C
:100340008091910A32E03093BB0A2093BA0A2FEFD2
:100350002093B90A21E73AE03093B80A2093B70A0C
:100360001092B60A9093B50A1092B40A9091B40A0A
:10037000880F892B8093B40A8091B30A813029F5C4
:100380001092B30A8091B40A8093BB008091BC00A4
:1003900083FDF8CF85EC8093BC008091BB0A82304E
:1003A000E1F38091B90A8F3F91F08091B90A8032D0
:1003B00081F08091B90A803371F084E01092700A64
:1003C0001092920A10926F0A089585EEE4CF80E0B1
:1003D000F5CF82E0F3CF83E0F1CF91E090936F0A05
:1003E0008093910A1092700A1092920A0895909147
:1003F0006E0A80916D0A2FEF3FEF981748F4E92FAE
:10040000F0E0ED56F54F208130E09F5F90936E0A4B
:10041000C901089590916E0A80916D0A2FEF3FEF08
:10042000981748F4E92FF0E0ED56F54F208130E0C1
:100430009F5F90936E0AC901089582508A3088F5B3
:10044000E82FF0E0EA5DFD4F0C9492384E02520224
:1004500030023602510251023A02400244024A027C
:10046000809180008F778093800008958091800034
:100470008F7DF9CF8091B0008F778093B000089581
:100480008091B0008F7DF9CF809190008F7780931D
:1004900090000895809190008F7DF9CF84B58F777B
:1004A00084BD089584B58F7DFBCFCF93DF93282F34
:1004B00030E0F901E655FE4F8491F901EC52FE4F10
:1004C000D491F901EC50FE4FC491CC23A1F08111DD
:1004D0000E941D02EC2FF0E0EE0FFF1FE056FE4FD2
:1004E000A591B491EC91ED2381E090E009F480E0D6
:1004F000DF91CF91089580E090E0FACF1F93CF93E2
:10050000DF93282F30E0F901E655FE4F8491F90181
:10051000EC52FE4FD491F901EC50FE4FC491CC2324
:10052000A9F0162F81110E941D02EC2FF0E0EE0FB2
:10053000FF1FEA56FE4FA591B4918FB7F894EC9146
:10054000111108C0D095DE23DC938FBFDF91CF91CE
:100550001F910895DE2BF8CFCF93DF9390E0FC013D
:10056000EC52FE4F24918C509E4FFC0184918823C5
:10057000D1F090E0880F991FFC01E653FE4FA59142
:10058000B491FC01EA56FE4FC591D49161110EC0A1
:100590009FB7F8948C91E22FE0958E238C9328815D
:1005A000E223E8839FBFDF91CF9108958FB7F8943E
:1005B000EC91E22BEC938FBFF6CF00000000880F88
:1005C000991F05970197F1F708953FB7F894809127
:1005D000690A90916A0AA0916B0AB0916C0A26B5DB
:1005E000A89B05C02F3F19F00196A11DB11D3FBF6B
:1005F000BA2FA92F982F8827BC01CD01620F711D3A
:10060000811D911D43E0660F771F881F991F4A9532
:10061000D1F708958F929F92AF92BF92CF92DF92BF
:10062000EF92FF926B017C010E94E5024B015C019D
:10063000C114D104E104F104B9F00E94E502681983
:1006400079098A099B09683E73408105910580F309
:1006500021E0C21AD108E108F10888EE880E83E093
:10066000981EA11CB11CE4CFFF90EF90DF90CF90BB
:10067000BF90AF909F908F900895DF92EF92FF927E
:100680000F931F93CF93DF93D82F162F042F8CE057
:100690000E945502D82E8DE00E945502E82E8EE071
:1006A0000E945502F82EC5E060E570E080E090E021
:1006B0000E940A03DD2321F061E08CE00E947E02AB
:1006C000112321F061E08DE00E947E02002321F0E1
:1006D00061E08EE00E947E0260E570E080E090E0E4
:1006E0000E940A03DD2321F060E08CE00E947E027C
:1006F000112321F060E08DE00E947E02002321F0B2
:1007000060E08EE00E947E02C15071F66D2D8CE09B
:100710000E947E026E2D8DE00E947E026F2D8EE083
:10072000DF91CF911F910F91FF90EF90DF900C948C
:100730007E022FB7F8946091650A7091660A8091E5
:10074000670A9091680A2FBF0895AF92BF92CF9227
:10075000DF92EF92FF920F931F93CF93DF936C0181
:100760007B018B01040F151FEB015E01AE18BF0862
:10077000C017D10759F06991D601ED91FC91019014
:10078000F081E02DC6010995892B79F7C501DF912C
:10079000CF911F910F91FF90EF90DF90CF90BF907E
:1007A000AF900895FC01538D448D252F30E0842FA8
:1007B00090E0821B930B541710F0CF960895019789
:1007C0000895FC01918D828D981761F0A28DAE0F76
:1007D000BF2FB11D5D968C91928D9F5F9F73928FFD
:1007E00090E008958FEF9FEF0895FC01918D828D29
:1007F000981731F0828DE80FF11D858D90E00895F6
:100800008FEF9FEF0895FC01918D228D892F90E04D
:10081000805C9F4F821B91098F73992708958FEBFE
:100820009CE00E94030421E0892B09F420E0822F40
:1008300008958CE59DE00E94030421E0892B09F4D2
:1008400020E0822F0895FC01A48DA80FB92FB11DBF
:10085000A35ABF4F2C91848D90E001968F739927F6
:10086000848FA689B7892C93A089B1898C918370D4
:1008700080648C93938D848D981306C00288F389CD
:10088000E02D80818F7D80830895EF92FF920F93FA
:100890001F93CF93DF93EC0181E0888F9B8D8C8D2C
:1008A00098131AC0E889F989808185FF15C09FB720
:1008B000F894EE89FF896083E889F98980818370E3
:1008C000806480839FBF81E090E0DF91CF911F9192
:1008D0000F91FF90EF900895F62E0B8D10E00F5FB3
:1008E0001F4F0F731127E02E8C8D8E110CC00FB689
:1008F00007FCFACFE889F989808185FFF5CFCE0121
:100900000E942304F1CFEB8DEC0FFD2FF11DE35A74
:10091000FF4FF0829FB7F8940B8FEA89FB898081A3
:100920008062CFCFCF93DF93EC01888D8823B9F01D
:10093000AA89BB89E889F9898C9185FD03C08081EA
:1009400086FD0DC00FB607FCF7CF8C9185FFF2CF67
:10095000808185FFEDCFCE010E942304E9CFDF9196
:10096000CF91089580E090E0892B29F00E9419042E
:1009700081110E94000080E090E0892B29F00E9404
:100980000F0481110C94000008958FB7F8948091A2
:1009900064048FBF089561E0FC0184810E947E029F
:1009A0008091630481111092630408958EBD00004C
:1009B0000DB407FEFDCF8EB508958FEF0C94D604CD
:1009C0000F931F93CF93DF93EC010E9499038B0148
:1009D0000E94DD048F3F69F00E949903601B710B38
:1009E0006C177D07A8F380E0DF91CF911F910F91E5
:1009F000089581E0F9CF8CBD9DBD0895CF93DF931D
:100A0000EC0180916304811109C081E0809363044B
:100A10008091F90D9091FA0D0E94FB0460E08C81A9
:100A2000DF91CF910C947E028F929F92AF92BF92F2
:100A3000FF920F931F93CF93DF93EC01F62E4901A2
:100A40005A018E81882389F08F8198859C012F5FC0
:100A50003F4F38872F838230924018F40E94DD0484
:100A6000F3CFCE010E94CB041E82CE010E94FE0471
:100A70008CE291E00E94E0048F2D80640E94D604F5
:100A800008E110E0D501C401002E04C0B695A79579
:100A9000979587950A94D2F70E94D60408501109B9
:100AA000083F8FEF180771F785E9FF2021F028E054
:100AB00087E8F2128FEF0E94D60410E00E94DD0456
:100AC0008A8787FF04C01F3F11F01F5FF7CFDF91B8
:100AD000CF911F910F91FF90BF90AF909F908F90FB
:100AE0000895AF92BF92CF92DF92EF92FF920F9351
:100AF0001F93CF93DF93EC016901C801820F931F0D
:100B00008130924050F58E81882379F088819981D7
:100B1000AA81BB8184179507A607B70731F48F8197
:100B20009885C816D90608F042C0488359836A835D
:100B30007B838B85833039F089E0440F551F661F16
:100B4000771F8A95D1F79A01AB0161E1CE010E942E
:100B50001405882389F083E08D83CE010E94CB04A5
:100B600080E0DF91CF911F910F91FF90EF90DF9088
:100B7000CF90BF90AF9008950E9499035B010E94AF
:100B8000DD048A878F3F69F40E9499036A197B0903
:100B90006D327140A0F38FE08D83CE010E94CB04B3
:100BA000DCCF8E3F89F418861F8281E08E838F818F
:100BB00098858C159D0550F40E94DD048F819885E1
:100BC000019698878F83F3CF8DE0E6CF6701E00E23
:100BD000F11E0E94DD04F60181936F01EE15FF0501
:100BE000C1F78F819885080F191F18870F83898592
:100BF000882319F001151240A0F08E81882389F016
:100C00008F8198859C012F5F3F4F38872F838230DB
:100C1000924018F40E94DD04F3CFCE010E94CB0471
:100C20001E8281E09ECFEF92FF920F931F93CF938E
:100C3000DF93EC01790182E14115510561057105F0
:100C400099F08B85833039F089E0440F551F661F7A
:100C5000771F8A95D1F79A01AB0168E1CE010E9416
:100C60001405882319F084E08D8330C08EEF0E9434
:100C7000D60487018EEFF81AF80181918F010E9446
:100C8000D6040E151F05C1F78FEF0E94D6048FEF13
:100C90000E94D6040E94DD048A878F71853089F412
:100CA00088E592E00E94E0048823A9F020E030E08B
:100CB000A9016DE0CE010E941405882371F084E142
:100CC000D3CF81E18D83CE010E94CB04CE010E945F
:100CD000CB0480E00AC085E1C7CF0E94DD0481110A
:100CE000EECFCE010E94CB0481E0DF91CF911F9126
:100CF0000F91FF90EF900895CF93DF93809165045B
:100D00008823A9F1C091BD0CD091BE0C4091010186
:100D10005091020160910301709104012DEB3AE0C2
:100D2000CE010E941306811104C080E0DF91CF91B3
:100D30000895409166045091670460916804709131
:100D40006904411551056105710579F02DEB3AE013
:100D5000CE010E941306882341F31092660410927C
:100D6000670410926804109269041092650481E08F
:100D7000DDCF8F929F92AF92BF92EF92FF920F932F
:100D80001F93CF934B015C01C42F8091010190917F
:100D90000201A0910301B091040188159905AA05EB
:100DA000BB0549F10E947C0681110BC080E0CF9108
:100DB0001F910F91FF90EF90BF90AF909F908F90F9
:100DC00008958DEBE82E8AE0F82E00E012E030E086
:100DD00020E0B501A4018091BD0C9091BE0C0E9451
:100DE0007105882319F38092010190920201A0926B
:100DF0000301B0920401409165044C2B40936504BB
:100E000081E0D5CF8F929F92AF92BF92CF92DF9227
:100E1000EF92FF92CF932BEF3DE03093BE0C2093E7
:100E2000BD0C882309F46DC040E060E070E0CB01A8
:100E30000E94B90681110BC080E0CF91FF90EF9026
:100E4000DF90CF90BF90AF909F908F90089580914A
:100E50007B0C8F7789F78091870C9091880CA091FB
:100E6000890CB0918A0C84369105A105B10520F357
:100E7000C090830CD090840CE090850CF090860C90
:100E8000C114D104E104F104B9F240E0C701B60194
:100E90000E94B906882381F28091C80A9091C90AFC
:100EA0008115924049F6A091CD0AAA2329F26091BA
:100EB000CB0A7091CC0A6115710509F4BDCF209160
:100EC000CA0A222309F4B8CFA093190E20930B0E5F
:100ED00090E080E030E0E1E0F0E0C82FAF01082EC4
:100EE00002C0440F551F0A94E2F72417350769F032
:100EF00041E0480F01968930910579F74093140E2F
:100F00009BCFC12CD12C7601C0CF8093140E2091A1
:100F1000D30A3091D40A50E040E02115310541F464
:100F20002091E10A3091E20A4091E30A5091E40AEB
:100F300020930C0E30930D0E40930E0E50930F0E17
:100F400046015701860E971EA11CB11C80921A0EF5
:100F500090921B0EA0921C0EB0921D0EE091CE0A34
:100F6000F091CF0AF093200EE0931F0EB0E00E94A4
:100F70003238DC01CB01880D991DAA1DBB1D809361
:100F8000210E9093220EA093230EB093240E25E001
:100F9000EE0FFF1F2A95E1F7E150FE4FEF2FFF27DD
:100FA000E6958E0F9F1FA11DB11D8093150E909386
:100FB000160EA093170EB093180E8090D00A909042
:100FC000D10AB12CA12C8114910441F48090DD0A46
:100FD0009090DE0AA090DF0AB090E00AC81AD90A01
:100FE000EA0AFB0AC80CD91CEA1CFB1C04C0F694D4
:100FF000E794D794C794CA95D2F7C092100ED092B6
:10100000110EE092120EF092130E85EFC8168FE0CB
:10101000D806E104F10428F48CE080931E0E81E0F0
:101020000CCF80E125EFC2162FEFD206E104F104C8
:10103000A0F38091E90A9091EA0AA091EB0AB0919D
:10104000EC0A8093210E9093220EA093230EB0936E
:10105000240E80E2E2CF4F925F926F927F928F9246
:101060009F92AF92BF92CF92DF92EF92FF920F9337
:101070001F93CF93DF93EC01423051056105710559
:1010800090F480E0DF91CF911F910F91FF90EF904E
:10109000DF90CF90BF90AF909F908F907F906F9098
:1010A0005F904F90089589859A85AB85BC850196A0
:1010B000A11DB11D84179507A607B70710F3CB88AC
:1010C000DC88ED88FE888F89803109F042C0BB271B
:1010D000A72F962F852F480159012A013B01C80EE1
:1010E000D91EEA1EFB1E8091010190910201A09180
:1010F0000301B0910401C816D906EA06FB0699F56A
:101100008F898031C1F5B301A20155276627772762
:10111000440F551F4354554FFA01918280828091AC
:1011200065048160809365048A89823080F08D81B6
:101130009E81AF81B8858C0D9D1DAE1DBF1D809316
:10114000660490936704A0936804B093690481E0F7
:1011500099CFDB01CA01E7E0B695A79597958795EA
:10116000EA95D1F7B8CF40E0C701B6010E94B906B1
:101170008111C6CF86CFB301A2014F7755276627CD
:101180007727440F551F440F551F4354554FFA01FD
:1011900080829182A282B382C2CF8F929F92AF92BD
:1011A000BF92CF92DF92EF92FF920F931F93CF9354
:1011B000DF93FC0181859285A385B4850196A11DED
:1011C000B11D84179507A607B70770F480E0DF917B
:1011D000CF911F910F91FF90EF90DF90CF90BF9034
:1011E000AF909F908F90089583889488A588B68843
:1011F0008789803189F5BB27A72F962F852FE90195
:101200006A017B018F01BC01CD01680D791D8A1D2A
:101210009B1D8090010190900201A0900301B0906D
:10122000040186169706A806B90601F5F801878914
:10123000803111F5DD24EE24FF24F601EE0FFF1FAF
:10124000E354F54F80819181B0E0A0E088839983D9
:10125000AA83BB8381E0BBCFDB01CA01C7E0B6959F
:10126000A79597958795CA95D1F7C9CF40E00E9479
:10127000B9068111DBCFAACFE894C7F8DD24EE24AC
:10128000FF24F601EE0FFF1FEE0FFF1FE354F54F93
:1012900080819181A281B381BF70D8CF4F925F923C
:1012A0006F927F92AF92BF92CF92DF92EF92FF92B6
:1012B0000F931F93CF93DF9300D000D0CDB7DEB74D
:1012C0008C0149835A836B837C835901C12CD12CB7
:1012D0007601412C82E0582E612C712C49815A8173
:1012E0006B817C819E012F5F3F4FC8010E94CD081A
:1012F000882339F1F8018585A301920104C0220FEA
:10130000331F441F551F8A95D2F7DA01C901C80E51
:10131000D91EEA1EFB1E49815A816B817C81878917
:10132000803111F188EF9FEFAFEFBFE04817590709
:101330006A077B0798F2F501C082D182E282F382CC
:1013400081E00F900F900F900F90DF91CF911F9140
:101350000F91FF90EF90DF90CF90BF90AF907F9074
:101360006F905F904F90089588EF9FEFA0E0B0E0FE
:10137000DDCF8F929F92AF92BF92CF92DF92EF928A
:10138000FF920F931F93CF93DF93EC018D81811117
:101390000EC080E0DF91CF911F910F91FF90EF90F1
:1013A000DF90CF90BF90AF909F908F9008950B8962
:1013B0001C892D893E89041715072607370748F32E
:1013C0004A015B01823031F48A869B86AC86BD86F9
:1013D00081E0E0CF81149104A104B10449F41E829C
:1013E0001F82188619861A861B861C861D86F0CFDA
:1013F0000A851B852C853D85EB8DFC8D858590E0D0
:101400000996B901A8014150510961097109082ED5
:1014100004C076956795579547950A94D2F775015C
:101420006401E1E0CE1AD108E108F10804C0F694A5
:10143000E794D794C7948A95D2F7C416D506E606E2
:10144000F70620F0012B022B032B11F58F89988DC5
:10145000A98DBA8D8E839F83A887B9878E010A5F75
:101460001F4FC114D104E104F10409F4ADCF4E8142
:101470005F816885798598018B8D9C8D0E94CD0850
:1014800091E0C91AD108E108F1088111EACF81CFB2
:10149000C41AD50AE60AF70AE1CF3F924F925F924B
:1014A0006F927F928F929F92AF92BF92CF92DF9274
:1014B000EF92FF920F931F93CF93DF93CDB7DEB7D9
:1014C0002C970FB6F894DEBF0FBECDBF5C01DC01D8
:1014D0005B968D909C905C9716964D905D906D906C
:1014E0007C901997411451046104710409F468C097
:1014F000BFEF4B1A5B0A6B0A7B0A312CF401818522
:101500009285A385B4859C01AD012F5F3F4F4F4F5E
:101510005F4F29873A874B875C87730162011D8281
:101520001E821F821886F40181859285A385B48569
:101530002D813E814F815885281739074A075B075F
:1015400008F056C089859A85AB85BC858C159D05AC
:10155000AE05BF0550F482E0C82ED12CE12CF12C51
:1015600092E0492E512C612C712C9E012F5F3F4F30
:10157000B701A601C4010E94CD088823C9F1898161
:101580009A81AB81BC81892B8A2B8B2B09F1260197
:1015900037019FEF491A590A690A790A2D813E815C
:1015A0004F8158852F5F3F4F4F4F5F4F2D833E83B5
:1015B0004F8358873FEFC31AD30AE30AF30AB3CF26
:1015C000F40140805180628073803324339496CF3D
:1015D000C414D504E604F70409F70FEF1FEF2FEF4B
:1015E0003FE0B701A601C4010E942B08811119C078
:1015F00080E02C960FB6F894DEBF0FBECDBFDF9112
:10160000CF911F910F91FF90EF90DF90CF90BF90FF
:10161000AF909F908F907F906F905F904F903F9092
:101620000895F50146815781608571854115510501
:101630006105710539F097018601C4010E942B08EC
:101640008823B1F2D5011696CD92DD92ED92FC92EF
:101650001997332051F0D701C6010196A11DB11D84
:10166000F40180839183A283B383F5018789908DF0
:10167000A18DB28D892B8A2B8B2B39F4C78AD08E02
:10168000E18EF28E84818068848381E0B2CFCF9333
:10169000DF93EC018D81882389F18C8187FF2AC03B
:1016A0006E857F858889998941E00E94B9068823E3
:1016B00029F1EA8980E2E89FF0011124E354F54F13
:1016C0003097E1F08D81823040F48B899C89AD891F
:1016D000BE89848F958FA68FB78F8F89988D938FB2
:1016E000828F8F89988DA98DBA8DB58BA48B8C81B3
:1016F0008F778C83DF91CF910C947C0680E0DF9113
:10170000CF910895CF93DF93EC010E94470B88237C
:1017100011F01D8281E0DF91CF910895CF92DF9289
:10172000EF92FF921F93CF93DF9380912A0E88232D
:1017300021F085E29EE00E94820B1092060E10922C
:10174000040E1092010E1092000E84E08093FF0DA3
:101750000E949903EB0161E08091FF0D0E94AC02B1
:1017600061E08091FF0D0E947E021FB7F894809186
:10177000BC0A811127C0E8EFF1E08491E8EDF1E0C7
:101780009491E82FF0E0EE0FFF1FE653FE4FA59176
:10179000B491EC91E92321F461E084E00E947E029F
:1017A00061E084E00E94AC028CB580618CBD8CB598
:1017B00080648CBD61E087E00E94AC0261E085E05E
:1017C0000E94AC028091BC0A8F5F8093BC0A1FBF4D
:1017D00082E58093F90D81E08093FA0D8091F90DF7
:1017E0009091FA0D0E94FB041AE08FEF0E94D6043C
:1017F0001150D9F78BEF9DE00E94FE0420E030E00D
:10180000A90160E08BEF9DE00E941405182F8093E2
:10181000050E8130B9F00E9499036C1B7D0B613D70
:10182000774060F381E08093000E8BEF9DE00E9493
:10183000CB0480E0DF91CF911F91FF90EF90DF907C
:10184000CF9008952AEA31E040E050E068E08BEF65
:101850009DE00E94140582FF2AC01093060E80911D
:10186000060EC12CD12C7601823029F4C12CD12C4A
:10187000E12C30E4F32E20E030E0A90167E38BEFA8
:101880009DE00E941405A701960169E28BEF9DE09F
:101890000E9414058093050E8823C1F00E949903CD
:1018A0006C1B7D0B613D774030F388E0BCCF14E0CA
:1018B0000E94DD048093050E1150D1F78A3A11F091
:1018C00082E0B1CF82E08093060EC9CF8091060EF0
:1018D0008230D1F420E030E0A9016AE38BEF9DE093
:1018E0000E941405882311F086E09DCF0E94DD043C
:1018F000807C803C19F483E08093060E0E94DD0416
:101900000E94DD040E94DD048BEF9DE00E94CB0469
:1019100080E58093F90D81E08093FA0D0E94020723
:10192000882309F44DC080912A0E811182CF8091C5
:101930001E0E803109F04BC082E080932A0E109277
:101940003C0E10923D0E10923E0E10923F0E809172
:101950001F0E9091200EB0E0A0E025E0880F991FA7
:10196000AA1FBB1F2A95D1F78093380E9093390E8A
:10197000A0933A0EB0933B0E87E09EE09093410E09
:101980008093400E81E08093290E10922B0E1092CE
:101990002C0E10922D0E10922E0E10922F0E1092D1
:1019A000300E1092310E1092320E1092330E1092B1
:1019B000340E1092350E1092360E1092370E3ACF2A
:1019C00080E00E940207882309F433CFACCF803235
:1019D00009F02FCF83E080932A0E4091210E509181
:1019E000220E6091230E7091240E40933C0E509372
:1019F0003D0E60933E0E70933F0E28E33EE087E07D
:101A00009EE00E944E098111B7CF13CF2F923F92D3
:101A10004F925F926F927F928F929F92AF92BF92FE
:101A2000CF92DF92EF92FF920F931F93CF93DF93AA
:101A300000D000D0CDB7DEB78C015B011A01DC010C
:101A400015968C911597813009F0C8C014968C9129
:101A500081FFC4C082FDAEC06101D8011A964D91CC
:101A60005D916D917C911D97C114D10409F429C138
:101A70005B968D919C915C97FC0174802FEF270DF4
:101A80002A013B0139E076946794579447943A953C
:101A9000D1F7722E74207A01F1E0FF22711020C07C
:101AA000E114F104E9F416964D915D916D917C91EC
:101AB0001997411551056105710509F098C05796B0
:101AC0008D919D910D90BC91A02D0097A105B10520
:101AD00009F0AFC0C8010E944D0A882309F47EC0F6
:101AE00080E092E08E199F0946018C159D0508F44F
:101AF0004C01D8015B964D915C915C9716968D9147
:101B00009D910D90BC91A02D0297A109B109FA01F8
:101B1000258504C0880F991FAA1FBB1F2A95D2F7DD
:101B20004685578560897189840F951FA61FB71F49
:101B30009C01AD01270D311D411D511D29013A01A7
:101B4000811432E0930609F07AC0809101019091EE
:101B50000201A0910301B091040184159505A60529
:101B6000B70559F48FEF9FEFDC018093010190934B
:101B70000201A0930301B09304019501B301A201F6
:101B80008091BD0C9091BE0C0E941306882331F108
:101B90009EEFB91AC818D908F80182859385A485E3
:101BA000B585880D991DA11DB11D82879387A487D6
:101BB000B58753CFF8014389548965897689828531
:101BC0009385A485B585481759076A077B0709F4EB
:101BD00043CFC8010E94B90981113ECF81E090E056
:101BE000D80113969C938E93129780E007C09E01B4
:101BF0002F5F3F4F0E94CD08811102C090E077C057
:101C000089819A81AB81BC81F801238D348DF901E2
:101C1000278948EF5FEF60E070E0203121F048EF66
:101C20005FEF6FEF7FE084179507A607B70708F00F
:101C300051CFF80186839783A087B18751CFE114F4
:101C4000F10491F5D8011A964D915D916D917C91B9
:101C50001D9753968D919D910D90BC91A02D481785
:101C600059076A077B0700F10E947C06882309F464
:101C7000B5CF40920101509202016092030170922F
:101C80000401809165048160809365049701235469
:101C9000354FD501C901880D991DF9018E179F0790
:101CA00059F04D914193FACF41E0C301B2010E9436
:101CB000B9068111EBCF92CF821B930BA80EB91EF0
:101CC00069CFF80183899489A589B6898417950716
:101CD000A607B70738F48481438B548B658B768BCA
:101CE00080688483F801848183FD18C0C1010F904E
:101CF0000F900F900F90DF91CF911F910F91FF9058
:101D0000EF90DF90CF90BF90AF909F908F907F909B
:101D10006F905F904F903F902F900895C8010E9460
:101D2000470B882309F45ACFE1CFCF93DF931F925B
:101D3000CDB7DEB7698341E050E0BE016F5F7F4FF2
:101D40000E94060D0F90DF91CF910895FC01DB01F9
:101D500012968D919C9113979383828384E591E0F1
:101D60009183808314968C911497848315968C911B
:101D70001597858316964D915D916D917C9119977C
:101D800046835783608771871A964D915D916D9157
:101D90007C911D9742875387648775871E964D9166
:101DA0005D916D917C91519746875787608B718BC0
:101DB00052968C915297828B53964D915D916D9175
:101DC0007C915697438B548B658B768B57964D91B0
:101DD0005D916D917C915A97478B508F618F728F77
:101DE0005B968D919C91948F838F08950895FC014B
:101DF000818D928D009711F00C94470B0895DC01B2
:101E00005996ED91FC913097B9F083899489A58911
:101E1000B6894285538564857585841B950BA60B11
:101E2000B70B811520E89207A105B10538F08FEFB7
:101E30009FE7A0E0B0E0089590E080E00895CF93A0
:101E4000DF93EC01E98DFA8D309749F481E090E061
:101E50009B838A8390E080E0DF91CF910895138285
:101E60001282898D9A8D0E94060DE98DFA8D22814C
:101E70003381232B59F7F0CFCF93DF931F92CDB748
:101E8000DEB76983DC01ED91FC910280F381E02DE6
:101E900041E050E0BE016F5F7F4F09950F90DF91E9
:101EA000CF9108952F923F924F925F926F927F92BF
:101EB0008F929F92AF92BF92CF92DF92EF92FF925A
:101EC0000F931F93CF93DF9300D01F92CDB7DEB750
:101ED000FC018581811118C08FEF9FEF0F900F904B
:101EE0000F90DF91CF911F910F91FF90EF90DF90B6
:101EF000CF90BF90AF909F908F907F906F905F90AA
:101F00004F903F902F900895848180FFE5CF4389C3
:101F100054896589768982859385A485B585312C18
:101F2000212C481759076A077B0719F022242394AC
:101F3000312C6F012101CE0101963C01DF01169683
:101F4000BB83AA834114510409F4C5C0F60142853C
:101F50005385648575854A01F1E09F22D6015B9621
:101F60008D919C915C978A019B01E9E036952795BC
:101F700017950795EA95D1F71596EC91E230E9F5BA
:101F8000FC01628D738D848D958D600F711F821F92
:101F9000931FA12C22E0B22EA818B9084A145B04A2
:101FA00008F45201F601248126FD04C0A114F2E0D8
:101FB000BF0671F40091010110910201209103010B
:101FC00030910401061717072807390709F05EC08A
:101FD00040E00E94B906882309F47ECFC4018354EF
:101FE000954FD3019C012A0D3B1DFC012E173F0785
:101FF00009F46CC041914D93F9CFDC011496BC906B
:10200000BA94B0228114910479F4B1100DC0452B1B
:10201000462B472B69F5F6018789908DA18DB28DEE
:1020200086839783A087B187D6015B96ED91FC915B
:102030005C9716966D917D918D919C911997625048
:10204000710981099109258504C0660F771F881FD2
:10205000991F2A95D2F70685178520893189600F47
:10206000711F821F931F6B0D711D811D911D91CFDB
:10207000D60116964D915D916D917C9119972A81AB
:102080003B810E94CD088111CFCF26CF73018501FE
:102090009401AB01BC018091BD0C9091BE0C0E94DB
:1020A0007105882309F418CF6A0C7B1CF601828520
:1020B0009385A485B5858A0D9B1DA11DB11D8287C1
:1020C0009387A487B5874A185B083CCF281B390B38
:1020D000620E731EEBCF2A94232809F0FDCE89816E
:1020E00090E0FCCEFC01818D928D009711F00C9454
:1020F000520F8FEF9FEF08950F931F93CF93DF93AE
:10210000EC01898D9A8D10E000E0009799F00E9413
:10211000520F8C010F3F100769F0898D9A8DFC01D9
:10212000428553856485758541505109610971095E
:102130000E94B909C801DF91CF911F910F910895B5
:1021400085ED8093BC008091BC0084FDFCCF109293
:10215000BB0A089520914004260F3327331F2132F4
:102160003105ECF42091BB0AFC0190E080E02430C2
:1021700069F082E00895A09140042191AC01405E95
:102180005B4FA40FB52FB11D2C930196861798F3C2
:1021900080914004680F6093400480E0089581E0DE
:1021A00008950895E0916E0A80916D0AE81730F461
:1021B000F0E0ED56F54F808190E008958FEF9FEFAE
:1021C000089580916D0A90916E0A891B990B08956C
:1021D000CF92DF92EF92FF920F931F93CF93DF93F3
:1021E0007C01CB018A0120916F0A222389F0EB0147
:1021F0006B01C40ED51ECC15DD0569F06991D701C0
:10220000ED91FC910190F081E02DC7010995F3CF8C
:10221000642F0E94AA10C801DF91CF911F910F91E6
:10222000FF90EF90DF90CF900895CF93DF931F92B0
:10223000CDB7DEB7698320916F0A2223F9F0209190
:10224000920A203258F021E030E0FC0133832283EF
:1022500090E080E00F90DF91CF9108958091700A17
:10226000E82FF0E0EF58F54F998190838F5F8093CE
:10227000700A8093920A81E090E0ECCF61E0CE0199
:1022800001960E94AA10F7CF682F84E49EE00C9478
:10229000151181E00C9495011F93CF93DF93EC010E
:1022A000162F88810E94ED0189AD9AADDC01ED9178
:1022B000FC910190F081E02D612F099589AD9AADD7
:1022C0000E94491190E09B8B8A8BDF91CF911F91E7
:1022D00008958F929F92AF92BF92CF92DF92EF922A
:1022E000FF921F93CF93DF93CDB7DEB72A970FB638
:1022F000F894DEBF0FBECDBF9C019AE0ECE0F1E0A8
:10230000DE01119601900D929A95E1F74D3060F142
:102310004CE018EF140F912F990F690FC9010E941B
:102320004C11412F50E0440F551F81E090E08C0F7D
:102330009D1F480F591FFA01C080D1800E94E502FD
:102340004B015C01F12CE12C0E94E502681979092E
:102350008A099B096C157D058E059F0548F48AE066
:1023600090E00E94DD02F0CF483098F648E0D1CFEF
:102370002A960FB6F894DEBF0FBECDBFDF91CF9186
:102380001F91FF90EF90DF90CF90BF90AF909F9004
:102390008F9008950F931F93CF93DF93EC01162F27
:1023A000072F8A810E94ED018A8D9B8DDC01ED91C2
:1023B000FC910190F081E02D602F09958A8D9B8D15
:1023C000DC01ED91FC910190F081E02D612F0995E8
:1023D0008A8D9B8D0E944911882341F081E8898F65
:1023E00080E0DF91CF911F910F91089581E0F9CFA7
:1023F000CF93FC0122812454223020F0C0E08C2FA6
:10240000CF91089562EA70E30E94CA11C82F882311
:10241000A9F361E070E080E090E00E940A03EFCF52
:10242000CF93DF93EC018A810E94ED018A8D9B8D11
:102430000E944911282F30E02115310511F084E860
:10244000898F81E0232B09F080E0DF91CF910895FF
:1024500090E080E0089561E082E10E947E0260E009
:1024600083E10E947E0261E070E080E090E00C94E5
:102470000A0361E083E10E947E0260E082E10C9445
:102480007E02CF93C82F80E70E94ED0181E090E0AB
:102490000E9444116C2F84E49EE00E94151184E494
:1024A0009EE0CF910C944911CF93C82F8AE60E94E9
:1024B000ED0162E084E49EE00E94151180E691E067
:1024C0000E94441184E49EE00E9449118AE60E9421
:1024D000ED0164E184E49EE00E94151166E284E46B
:1024E0009EE0CC2309F442C00E94151169E184E406
:1024F0009EE00E94151160EA84E49EE00E9415119E
:1025000066E584E49EE00E94151160E084E49EE0AC
:102510000E94151161E084E49EE00E94151184E49C
:102520009EE00E9449118AE60E94ED016AE184E47E
:102530009EE00E9415116FEB84E49EE00E9415114D
:1025400084E49EE00E9449118AE60E94ED0166E261
:1025500084E49EE00E9415116CE884E49EE00E94F1
:10256000151184E49EE0CF910C9449110E9415113D
:1025700069E984E49EE00E94151160E0BDCFCF932D
:10258000DF93D82FC62F8AE60E94ED016D2F84E4D9
:102590009EE00E9415116C2F84E49EE00E941511AC
:1025A00084E49EE0DF91CF910C9449110E94550183
:1025B00010926E0A80936D0A08950F931F93CF9324
:1025C000DF93C82F85E50E94ED010C2E000CDD0B7A
:1025D000CE010E94441184E49EE00E94491161E012
:1025E00070E085E590E00E94D6120E940A028C01FC
:1025F00085E50E94ED01CE0101960E94441184E41C
:102600009EE00E94491161E070E085E590E00E9443
:10261000D6120E940A0220E0382FC901800F911FB4
:10262000DF91CF911F910F910895CF92DF92EF929A
:10263000FF921F93CF93DF93EC0180E2689FF0013C
:102640001124E354F54F9385917161F0842F8274C6
:1026500049F080E0DF91CF911F91FF90EF90DF90E4
:10266000CF900895142F6A8B8091010190910201FF
:10267000A0910301B09104018E879F87A88BB98B2D
:10268000C488D588F12CE12C7601DD24CC24CF8AB6
:10269000D88EE98EFA8E828D938DB0E0A0E0AC01E9
:1026A000BD014C295D296E297F294F8B588F698F79
:1026B0007A8F83858871B1F4848D958DA68DB78DC1
:1026C0008B8B9C8BAD8BBE8B81E08D831F701C83AD
:1026D0001E821F82188619861A861B861C861D86F6
:1026E00081E0B8CF803109F0B4CF9E012D5E3F4F1D
:1026F0008B8D9C8D0E944E09882309F4AACF84E01B
:10270000E4CF862F413208F040E2642F0E94550149
:1027100010926E0A80936D0A08958F929F92AF92E5
:10272000BF92CF92DF92EF92FF92CF93DF93EC01B3
:1027300060E00E944C118A899B89892B71F060E0CE
:1027400070E0CB01DF91CF91FF90EF90DF90CF90C1
:10275000BF90AF909F908F90089543E0688189ADBE
:102760009AAD0E948113833050F389AD9AADDC019C
:10277000ED91FC910284F385E02D0995092E000C62
:10278000AA0BBB0B5C019924882489AD9AADDC01AE
:10279000ED91FC910284F385E02D09956C01990F70
:1027A000EE08FF08FE2CED2CDC2CCC24C80CD91C28
:1027B000EA1CFB1C89AD9AADDC01ED91FC91028411
:1027C000F385E02D0995BC01990F880B990B6C0DD1
:1027D0007D1D8E1D9F1DB6CFCF92DF92EF92FF928F
:1027E0000F931F93CF93DF938C01F62EE42EC52E0B
:1027F000462FDC0112966C9112975A968D919C91FE
:102800000E9481138F1113C0DE2CCE2DDC2D8C2F56
:102810008D198F15C8F4F801828D938DDC01ED912F
:10282000FC910284F385E02D09958993F0CF82E82D
:10283000F801818F80E0DF91CF911F910F91FF9080
:10284000EF90DF90CF90089581E0F5CFFF920F9346
:102850001F93CF93DF9300D000D000D0CDB7DEB769
:102860008C0166E174E20E94CA11F82E882351F1AE
:1028700064E070E080E090E00E940A03AE014F5FE8
:102880005F4F66E0C8010E94EC13F82E8823D1F058
:10289000898190E0982F88272A81820F911DF80165
:1028A000908F878B8C8190E0982F88272D81820FC5
:1028B000911D968B858B0E949903F8016483758323
:1028C000868397838F2D26960FB6F894DEBF0FBEB2
:1028D000CDBFDF91CF911F910F91FF90089580E7B9
:1028E0000E94ED0181E090E00E94441180E00E948E
:1028F000950141E060E784E49EE00E9481130E941C
:102900000A0208950E946F14982F937011F093306B
:1029100031F4982F9C7019F081E09C3009F480E02C
:102920000895CF93C4E00E946F14982F937011F014
:102930009330F9F4982F9C7071F09C3061F08061B5
:102940000E94411262E070E080E090E00E940A0381
:1029500081E0CF910895807C8F600E94411261E0F8
:1029600070E080E090E00E940A03C150E1F680E050
:10297000F0CF807C8360F1CF8AE60E94ED018DE28A
:1029800090E00E94441184E49EE00E94491141E0DD
:102990006AE684E49EE00E9481130E940A028F7717
:1029A0000895CF93C82F8AE60E94ED016C2F84E42E
:1029B0009EE00E94151180E00E94950141E06AE6C8
:1029C00084E49EE00E94811390916D0A80916E0ACA
:1029D000981721F00E940A02CF91089580E0FCCF61
:1029E0008F929F92AF92BF92FF920F931F93CF93BC
:1029F000DF9381E50E94ED0190E080E00E944411A8
:102A000084E49EE00E94491146E061E584E49EE092
:102A10000E9481130E940A029C0194E0359527953B
:102A20009A95E1F72F7033273AE0F32E8F70F29EDC
:102A3000800D1124809373040E940A02982F9F77BF
:102A400092959F708F70D82F9F9DD00D11240E945A
:102A50000A02982F9F7792959F708F70C82F9F9D25
:102A6000C00D11240E940A028C010E940A029C01DE
:102A700044E0359527954A95E1F72F7033278F70FD
:102A8000F29E800D1124282F30E0A4E6B0E00E94D1
:102A90003D384B015C010E940A029C0154E03595CF
:102AA00027955A95E1F72F7033278F70F29E800D8E
:102AB0001124282F30E0A0E1B7E20E943D389B01AD
:102AC000AC01280D391D4A1D5B1DC80164E09595B8
:102AD00087956A95E1F78F7099270F70F89E000D22
:102AE0001124200F311D411D511DA0E1BEE00E94A7
:102AF00032382CE3C29F80011124012E000C220BDE
:102B0000330B600F711F821F931F6D0F711D811D8D
:102B1000911D609374047093750480937604909370
:102B20007704DF91CF911F910F91FF90BF90AF90ED
:102B30009F908F900895FB0101900020E9F7319755
:102B4000AF01461B570BDC01ED91FC910280F38134
:102B5000E02D09948F929F92AF92BF920F931F9393
:102B6000CF93DF93CDB7DEB7A1970FB6F894DEBF52
:102B70000FBECDBF19A2423008F44AE08E010F5DAE
:102B80001F4F842E912CB12CA12CA50194010E94E1
:102B90007038E62FB901CA01EA3004F5E05DD801CA
:102BA000EE938D01232B242B252B79F790E080E0E9
:102BB000109729F0BD018FEB9CE00E949B15A19618
:102BC0000FB6F894DEBF0FBECDBFDF91CF911F913E
:102BD0000F91BF90AF909F908F900895E95CDFCFE9
:102BE000CF93DF93BC018FEB9CE00E949B15EC011F
:102BF0006EE671E08FEB9CE00E949B158C0F9D1F91
:102C0000DF91CF910895CF93DF930E949114A895FF
:102C1000C8ECD0E08AEF90E00E94DD0261E08FE036
:102C20000E947E028AEF90E00E94DD0260E08FE069
:102C30000E947E02219771F78AE60E94ED0168E109
:102C400084E49EE00E9415116AE084E49EE00E9404
:102C5000151184E49EE00E944911C5E0A89568EE34
:102C600073E080E090E00E940A03C150B9F781E769
:102C700091E00E94F015A895DF91CF9108954F92B1
:102C80005F926F927F928F929F92AF92BF92CF92FC
:102C9000DF92EF92FF920F931F93CF93DF938CE01D
:102CA0000E945502182F8DE00E945502D82F8EE009
:102CB0000E945502C82F61E08CE00E947E0261E014
:102CC0008DE00E947E0261E08EE00E947E020E9402
:102CD00099034B015C0100E084EF482E5524539486
:102CE000612C712C8EE10E945502892B09F05BC08A
:102CF0000E9499036B017C01A30192010E9470382C
:102D0000672B682B692B09F4A895C818D908EA081D
:102D1000FB0889EEC81683E0D806E104F10410F33D
:102D200060E08CE00E947E0281EDC81687E0D80644
:102D3000E104F104B8F260E08DE00E947E0289EBCC
:102D4000C8168BE0D806E104F10460F260E08EE082
:102D50000E947E0289E9C8168AE3D806E104F104DC
:102D600000F186EA91E00E94F015612F8CE00E944C
:102D70007E026D2F8DE00E947E026C2F8EE0DF912F
:102D8000CF911F910F91FF90EF90DF90CF90BF9068
:102D9000AF909F908F907F906F905F904F900C942A
:102DA0007E0201E09FCF002301F38EEC91E00E94B0
:102DB000F0150E940316D9CF0E94911481E50E945C
:102DC000ED0167E284E49EE00E94151160E084E476
:102DD0009EE00E94151185E990E00E94441184E470
:102DE0009EE00E944911A89568EE73E080E090E0B3
:102DF0000E940A03A89568EE73E080E090E00E94CC
:102E00000A03A89568EE73E080E090E00E940A0350
:102E1000A89581E50E94ED0167E284E49EE00E94AE
:102E2000151163E084E49EE00E94151185E990E0AD
:102E30000E94441184E49EE00E9449110C94031600
:102E40000F931F93CF93DF93EC01FB0144815581D6
:102E500060817181E881F9810280F381E02D09951B
:102E60008C016EE671E0CE010E949B15800F911FD0
:102E7000DF91CF911F910F9108950F931F93CF93DF
:102E8000DF93EC0188819981009759F02A813B8179
:102E90002617370730F081E0DF91CF911F910F9116
:102EA00008958B016F5F7F4F0E94633A009759F03E
:102EB000998388831B830A832C813D81232B59F7B7
:102EC000FC011082E8CF80E0E7CFEF92FF920F93F2
:102ED0001F93CF93DF936115710541F480E0DF917B
:102EE000CF911F910F91FF90EF90089541155105DB
:102EF000B1F07B01EC010C811D81040F151FB8019D
:102F00000E943D17882351F3288139818C819D814E
:102F1000B701820F931F0E94653B1D830C8381E0E4
:102F2000DECFFB0101900020E9F73197AF01461B8E
:102F3000570B0C946517FB014481558160817181A9
:102F40000C946517CF93DF93EC01888199810097EA
:102F500011F00E94DA39198218821D821C821B82AC
:102F60001A82DF91CF910895CF93DF93EC01FB019B
:102F700001900020E9F73197AF01461B570B0E94E3
:102F80006517811103C0CE010E94A217CE01DF9107
:102F9000CF910895EF92FF920F931F93CF93DF93FA
:102FA000EC017B018A01BA010E943D1781110BC01F
:102FB000CE010E94A217CE01DF91CF911F910F91F8
:102FC000FF90EF9008951D830C83B701888199814C
:102FD0000E94653BF0CFFB0101900020E9F731979B
:102FE000AF01461B570B0C94CA170F931F93CF9337
:102FF000DF93CDB7DEB761970FB6F894DEBF0FBE93
:10300000CDBF8C01CB01F801118210821382128294
:10301000158214824AE0BE016F5F7F4F0E94903498
:10302000BE016F5F7F4FC8010E94EB1761960FB61C
:10303000F894DEBF0FBECDBFDF91CF911F910F91EE
:1030400008950F931F93CF93DF93CDB7DEB7A1976A
:103050000FB6F894DEBF0FBECDBF8C01CB01BA0115
:10306000F8011182108213821282158214822AE0E2
:10307000AE014F5F5F4F0E946334BE016F5F7F4FB1
:10308000C8010E94EB17A1960FB6F894DEBF0FBEE1
:10309000CDBFDF91CF911F910F9108950F931F9393
:1030A000CF93DF93CDB7DEB762970FB6F894DEBF4C
:1030B0000FBECDBF8C01CB01F801118210821382AB
:1030C0001282158214824AE0BE016F5F7F4F0E9418
:1030D0005834BE016F5F7F4FC8010E94EB176296A4
:1030E0000FB6F894DEBF0FBECDBFDF91CF911F9119
:1030F0000F9108950F931F93CF93DF93CDB7DEB752
:1031000029970FB6F894DEBF0FBECDBF8C01862F76
:10311000F80111821082138212821582148250E00B
:10312000BE016F5F7F4F90E00E948534BE016F5FEC
:103130007F4FC8010E94EB1729960FB6F894DEBFA7
:103140000FBECDBFDF91CF911F910F910895CF9307
:10315000DF93EC01FB018617970749F060817181CD
:103160006115710541F0448155810E94CA17CE0155
:10317000DF91CF9108950E94A217F9CFFC0111822F
:1031800010821382128215821482FB0101900020AA
:10319000E9F73197AF01461B570B0C94CA17FC0196
:1031A00080819181009711F00C94DA3908953F9253
:1031B0004F925F926F927F928F929F92AF92BF9247
:1031C000CF92DF92EF92FF920F931F93CF93DF93F3
:1031D000CDB7DEB72C970FB6F894DEBF0FBECDBFCC
:1031E0008C010E94F01480901A0490901B04A0900F
:1031F0001C04B0901D04C12CD12C760181149104C3
:10320000A104B104E1F0C0907404D0907504E09082
:103210007604F09077048091160490911704A091A1
:103220001804B09119048C0C9D1CAE1CBF1C881A8C
:10323000990AAA0ABB0AC81AD90AEA0AFB0A64EE62
:1032400071E0C8010E949117409174045091750477
:103250006091760470917704CE0101960E94211846
:10326000BE016F5F7F4FC8010E949B17CE01019680
:103270000E94CF186CEE72E0C8010E949117409135
:103280001A0450911B0460911C0470911D04CE011E
:1032900001960E942118BE016F5F7F4FC8010E94F6
:1032A0009B17CE0101960E94CF186CEE72E0C80108
:1032B0000E949117B501A401CE0101960E94211828
:1032C000BE016F5F7F4FC8010E949B17CE01019620
:1032D0000E94CF186CEE72E0C8010E949117B701EE
:1032E000A601CE0101960E942118BE016F5F7F4F9B
:1032F000C8010E949B17CE0101960E94CF186CEE68
:1033000072E0C8010E9491178CE3482E512C612C69
:10331000712CC501B401A30192010E947038D62E10
:10332000362ECA01B901A30192010E947038C62E3F
:10333000562EC501B40120E13EE040E050E00E947D
:103340007038CA01B90128E130E040E050E00E9445
:103350007038762E662EC501B40120E831E541E0D3
:1033600050E00E94703892EBE92E97E0F92EE0E9E8
:10337000F1E044E6842E912C570183E0A822BB247F
:10338000A114B10431F4C701B4010E945C38892B47
:1033900089F4C701BF010E945C38892B59F08DE682
:1033A00091E02817390748F0281B390B8FEFE81AEE
:1033B000F80AE2CF8EE691E0F4CF8CE0E6E1F1E0AE
:1033C000DE01119601900D928A95E1F7AB2839F450
:1033D000C70164E670E00E945C38892B39F4C701AC
:1033E00060E971E00E945C38892B11F48DE18A83D9
:1033F000AA24A394FE01EA0DF11D808190E0281714
:10340000390720F0281B390BA394F4CFBB24B394C5
:10341000B20EB701CE0101960E94F517BE016F5F93
:103420007F4FC8010E949B17CE0101960E94CF18C2
:103430006DEE71E0C8010E94911789E08A1528F0AD
:1034400062EE71E0C8010E9491174AE06A2DCE0138
:1034500001960E947A18BE016F5F7F4FC8010E94DB
:103460009B17CE0101960E94CF186DEE71E0C80146
:103470000E94911789E08B1528F062EE71E0C80177
:103480000E9491174AE06B2DCE0101960E947A1896
:10349000BE016F5F7F4FC8010E949B17CE0101964E
:1034A0000E94CF1863E572E0C8010E94911789E07D
:1034B000861528F062EE71E0C8010E9491174AE07B
:1034C000672DCE0101960E947A18BE016F5F7F4F73
:1034D000C8010E949B17CE0101960E94CF1868E791
:1034E00072E0C8010E94911789E0851528F062EE0C
:1034F00071E0C8010E9491174AE06C2DCE0101963F
:103500000E947A18BE016F5F7F4FC8010E949B170F
:10351000CE0101960E94CF1868E772E0C8010E94B0
:10352000911789E0831528F062EE71E0C8010E94CE
:1035300091174AE06D2DCE0101960E947A18BE01C6
:103540006F5F7F4FC8010E949B17CE0101960E94BA
:10355000CF182C960FB6F894DEBF0FBECDBFDF910B
:10356000CF911F910F91FF90EF90DF90CF90BF9080
:10357000AF909F908F907F906F905F904F903F9013
:103580000895EF92FF920F931F93CF93DF93CDB7E0
:10359000DEB7A1970FB6F894DEBF0FBECDBF7C019A
:1035A000CB01BA01F70111821082138212821582B7
:1035B000148242E0420F8E010F5F1F4F0E943A3487
:1035C000009789F0BC01C7010E94EB17A1960FB6C6
:1035D000F894DEBF0FBECDBFDF91CF911F910F9149
:1035E000FF90EF900895C7010E94A217EFCF3F927E
:1035F0004F925F926F927F928F929F92AF92BF9203
:10360000CF92DF92EF92FF920F931F93CF93DF93AE
:10361000CDB7DEB72B970FB6F894DEBF0FBECDBF88
:103620007C01DC0115968C91811115C0FE0131964B
:10363000CE010C966F0130E23193E817F907E1F7FC
:10364000DA0130E087E09D91B92E992329F19E326D
:1036500039F48A3011F480E0E3C038E08AE0F3CF37
:10366000E6E8F1E04491442321F031969413FACF37
:10367000F2CF831780F34FED490F4E3560F74FE9D6
:10368000490F4A3118F440EEB42EB90EF601E30F9B
:10369000F11DB0823F5FD7CF89818032E1F2322EB7
:1036A0008B01FB01838D948DD7015C969C938E9347
:1036B0005B971682178210861186128613861486EF
:1036C0001586F80182859385A485B585438954893B
:1036D0006589768984179507A607B70708F04DC056
:1036E00025E0B695A795979587952A95D1F7F82F58
:1036F000FF70AF2ED80115968C91823008F4ABCFB5
:10370000C8010E94520F97FDA6CFF80182859385CC
:10371000A485B5854F96A11DB11D82879387A48787
:10372000B587F0E2AF9EB00111246354754F611567
:10373000710509F490CFDB018C91882341F0853E1F
:1037400009F061C0BB2029F0BB24B394BACFB110FB
:103750000EC0F701A28A8091010190910201A0910F
:103760000301B091040186879787A08BB18BDB01A1
:103770008C918111E9CFBB24B394832D8271823166
:1037800009F069CFBB2009F463C0F701668577852E
:103790008089918941E00E94B906882309F45BCFB2
:1037A000D70152968C91B0E28B9FC00111248354B3
:1037B000954F009709F44FCFFC013A9626E1DF01BF
:1037C0001D922A95E9F72BE0F601DC0101900D929C
:1037D0002A95E1F721E238E2FC01318B208B40E0B1
:1037E00058E057874687338B228B318F208F578B3A
:1037F000468B0E947C06882309F42DCF432DD701E8
:1038000052966C910AC04BE050E0C6010E94443BC6
:10381000892B09F056CF432D6A2DC7010E9415133D
:103820002B960FB6F894DEBF0FBECDBFDF91CF91C0
:103830001F910F91FF90EF90DF90CF90BF90AF90CE
:103840009F908F907F906F905F904F903F900895E2
:10385000F8018581823009F4FECEC8010E944D0A2C
:10386000882309F4F8CED8015B96ED91FC915C9722
:1038700016968D909D90AD90BC901997B2E08B1AE2
:103880009108A108B108858504C0880C991CAA1C60
:10389000BB1C8A95D2F786859785A089B189880E49
:1038A000991EAA1EBB1E848124013501480E511C9D
:1038B000611C711C84149504A604B70401F1E1E0B5
:1038C0004E1A5108610871080E947C06882309F489
:1038D000C2CEEDEBFAE011928DEB9CE08E179F07C4
:1038E000D1F740920101509202016092030170925F
:1038F000040180916504816080936504DBCFD80169
:103900005B96ED91FC91258580E092E0A0E0B0E02F
:1039100004C0880F991FAA1FBB1F2A95D2F7F80170
:103920004389548965897689840F951FA61FB71F1F
:10393000838B948BA58BB68BD70152961C928DEB03
:103940009AE03ACFEF92FF920F931F93CF93DF93BA
:10395000EC017B018A011B821A8288EE93E0A0E0D1
:10396000B0E08C839D83AE83BF8386E291E0998330
:1039700088838DE190E00E943E399A8F898F00976D
:1039800079F02DE1F701DC0101900D922A95E1F724
:103990004CE050E0B801CE010C960E946C3B188EB2
:1039A000DF91CF911F910F91FF90EF9008952F928B
:1039B0003F924F925F926F927F928F929F92AF92BF
:1039C000BF92CF92DF92EF92FF920F931F93CF930C
:1039D000DF93CDB7DEB7C457D1090FB6F894DEBF79
:1039E0000FBECDBF20910501222309F4E8C03C01A0
:1039F00061E08EE00E947E020E948E0B811107C062
:103A00008FEE91E00E94F01510920501D0C0A090B9
:103A1000560EB090570E4E018EE1880E911C65E255
:103A20007EE0C4010E94A60E1C821B8284E591E008
:103A30009A8389831E8265018E010F5F1F4F2401C7
:103A400018016FE270E0C6010E945A3B009709F42A
:103A50005BC0F60120812F3271F4FFEFCF1ADF0A2D
:103A6000902F812F8201492E582E942D852D2801CB
:103A7000092F182FE6CF8C198D3008F08CE0E82E36
:103A8000F12CA701B601CE01885A9F4F0E946C3BD2
:103A9000E8E5F0E0EC0FFD1FEE0DFF1D1082C80100
:103AA0000E94820B21E0AE01485A5F4FB201C8016B
:103AB0000E94F71A811122C01EAE1DAE84E591E06E
:103AC0009CAF8BAF21961FAE2197E596EEADFFAD73
:103AD000E597AE0EBF1EF5018081811122C0BE01A7
:103AE000655C7F4FC1010E94A60E4EEF51E0B1010F
:103AF000CE01885A9F4F0E94A21C3AC0CE0CDF1CF8
:103B0000C2010E94820BB1CFC6018A199B09E596BA
:103B10009FAF8EAFE597B201CE01CB960E94A60E65
:103B2000D4CF19A218A284E591E09F8F8E8F1BA29B
:103B300021968FAD219781115CC06C961FAE1EAE91
:103B40006C9788EE93E0A0E0B0E0A0968CAF9DAFBC
:103B5000AEAFBFAFA09786E291E06A969FAF8EAFFF
:103B60006A97E3961FAE1EAEE397A5961FAEA59784
:103B7000E396EEADFFADE397309709F462C085811F
:103B8000882309F45EC0B301CE01885A9F4F0E947A
:103B90002017E3968EAD9FADE397009741F00E940A
:103BA000820BE3968EAD9FADE3970E94DA3961E018
:103BB00084E00E947E0260E08EE00E947E02CC588B
:103BC000DF4F0FB6F894DEBF0FBECDBFDF91CF91B0
:103BD0001F910F91FF90EF90DF90CF90BF90AF902B
:103BE0009F908F907F906F905F904F903F902F901D
:103BF0000895825023E1A5018230A8F465E27EE0B9
:103C0000C4010E94F71A882309F497CF49A95AA939
:103C10006BA97CA9C4010E94B909B401C1010E9429
:103C2000A60EA50164CFBE01655C7F4FC4010E9452
:103C3000F71A882309F481CFCE01CB960E94820B1C
:103C4000E5CF80E092E0DECE3F924F925F926F929E
:103C50007F928F929F92AF92BF92CF92DF92EF921C
:103C6000FF920F931F93CF93DF93CDB7DEB7C65468
:103C7000D1400FB6F894DEBF0FBECDBF14B714BE4F
:103C80000FB6F894A89580916000886180936000D9
:103C9000109260000FBEE0916C0DF0916D0D32E05E
:103CA0003083E091680DF091690D1082E0916A0D0A
:103CB000F0916B0D28E020831092740DE091700D4F
:103CC000F091710D96E09083E0916E0DF0916F0D83
:103CD000808188698083E0916E0DF0916F0D808105
:103CE0008F7D8083E091CF0CF091D00C3083E091F8
:103CF000CB0CF091CC0C1082E091CD0CF091CE0C5D
:103D000020831092D70CE091D30CF091D40C9083C7
:103D1000E091D10CF091D20C808188698083E09190
:103D2000D10CF091D20C80818F7D808380E28093D2
:103D3000B8008CE092E00E94F01565E172E08FEB34
:103D40009CE00E949B15612F70E090E080E042E0D3
:103D50000E94AA156EE671E08FEB9CE00E949B1515
:103D600065E572E08FEB9CE00E949B150E94821437
:103D7000682F70E090E080E042E00E94AA156EE6B5
:103D800071E08FEB9CE00E949B1564E672E08FEB84
:103D90009CE00E949B150E949114682F70E090E0B7
:103DA00080E042E00E94AA156EE671E08FEB9CE095
:103DB0000E949B1560E08BE10E94AC0260E085E10F
:103DC0000E94AC0260E08DE10E94AC0260E08EE1F6
:103DD0000E94AC0261E086E10E94AC0261E087E1F2
:103DE0000E94AC0260E080E00E94AC0261E08FE0E3
:103DF0000E94AC0261E08CE00E94AC0261E08DE0C8
:103E00000E94AC0261E08EE00E94AC0261E082E1BF
:103E10000E94AC0261E082E10E947E0261E084E1E6
:103E20000E94AC0261E082E00E94AC0261E082E0AC
:103E30000E947E0261E08AE10E94AC0261E08AE1B8
:103E40000E947E0261E083E10E94AC0261E083E0B7
:103E50000E94AC0261E084E00E94AC0260E085E078
:103E60000E94AC0260E086E00E94AC0261E087E064
:103E70000E94AC0261E083E10E947E0261E084E086
:103E80000E947E0260E087E00E947E0264E670E0AD
:103E900080E090E00E940A0360E083E00E947E02DE
:103EA00061E084E10E94AC0260E084E10E947E0255
:103EB00080E00E94541264E670E080E090E00E948E
:103EC0000A0386E10E94D114182F082F0F7D602F5E
:103ED00086E10E94BF1262E370E080E090E00E9401
:103EE0000A03602F606486E10E94BF1268EC70E0F4
:103EF00080E090E00E940A03612F6F7986E10E94C2
:103F0000BF1264E170E080E090E00E940A0387E263
:103F10000E94D114682F6F7E87E20E94BF1286E252
:103F20000E94D1148F7C682F626C86E20E94BF12BF
:103F300062E370E080E090E00E940A038AE60E945B
:103F4000ED0160E384E49EE00E94151180E00E9490
:103F5000950142E06AE684E49EE00E94811380912C
:103F60006D0A90916E0A891B990B30E020E0029750
:103F70004CF00E940A028C010E940A0220E0382FB5
:103F8000202B312B369527953F70A7ECB0E00E948F
:103F90003D3824E630E040E050E00E947038309335
:103FA0001F0420931E0481E02C3D354008F480E07E
:103FB000809300010E9454128BE10E945502892BCC
:103FC00009F46EC040E060E081E00E943D0361E0E2
:103FD0008CE00E947E0260E08DE00E947E0260E044
:103FE0008EE00E947E020E94821498E12FE00FB6BC
:103FF000F894A895909360000FBE20936000811103
:104000000E94BC14A89568EE73E080E090E00E94E6
:104010000A03A89568EE73E080E090E00E940A032E
:10402000A89568EE73E080E090E00E940A03A895EE
:1040300010E001E0FF24F394EE24E39485E10E9474
:1040400055025C010E948214D82E682F6E258DE0E7
:104050000E947E02A895AB2809F4F3C0DD2009F484
:10406000F0C00E94BC14D82E682F70E090E080E071
:104070004AE00E94AA156EE671E08FEB9CE00E9478
:104080009B15E0E1ED1508F4DBC01F5F1B3008F461
:10409000D8C08AE792E00E94F0150E94DC16FFCF9C
:1040A0008EE10E945502892B09F48CCF61E084E1F6
:1040B0000E947E0240E060E081E00E943D0361E0FA
:1040C0008CE00E947E0208EC10E084EB90E00E94FD
:1040D000DD0261E08FE00E947E0284EB90E00E94AE
:1040E000DD0260E08FE00E947E020150110969F755
:1040F000A89587E992E00E94F01560E087E10E94B0
:104100007E0261E086E10E947E0281E50E94ED016F
:1041100067E284E49EE00E94151163E084E49EE07F
:104120000E94151167E984E49EE00E94151184E461
:104130009EE00E944911A89581E50E94ED0163E28D
:1041400084E49EE00E94151160E084E49EE00E94F9
:10415000151160E084E49EE00E94151165E084E49E
:104160009EE00E94151160E084E49EE00E9415111B
:1041700063E084E49EE00E94151167E984E49EE018
:104180000E94151160E084E49EE00E94151160E039
:1041900084E49EE00E94151184E49EE00E9449118F
:1041A0000FB6F894A89580916000886180936000B4
:1041B000109260000FBE88E199E20FB6F894A895BE
:1041C000809360000FBE909360000E94F01460EA3C
:1041D00072E08FEB9CE00E949B15609174047091DB
:1041E000750480917604909177044AE00E94AA15A4
:1041F0006EE671E08FEB9CE00E949B15BE016F5F45
:104200007F4F81E7FB0111928A95E9F780E50E94D3
:104210003A29811197C08BEA92E00E94F015109222
:104220001A0410921B0410921C0410921D04109288
:1042300016041092170410921804109219049AC0D0
:1042400010E0A895002309F453C028ECC22ED12C0D
:104250008AEF90E00E94DD0261E08FE00E947E0222
:104260008AEF90E00E94DD0260E08FE00E947E0213
:10427000F1E0CF1AD10861F798ECC92ED12C84EB6C
:1042800090E00E94DD0261E08FE00E947E0284EBFC
:1042900090E00E94DD0260E08FE00E947E0281E0FB
:1042A000C81AD10861F7FF2079F161E08EE00E9421
:1042B0007E0260E084E10E947E0261E083E00E9471
:1042C0007E0281E70E94ED0160E084E49EE00E94AE
:1042D000151163E184E49EE00E94151184E49EE0E0
:1042E0000E94491168EE73E080E090E00E940A03AA
:1042F0008EE10E94550200E0892B09F09FCEFE243A
:104300000E943F1601E09ACE60E08EE00E947E029D
:1043100061E084E10E947E0281E70E94ED0160E09D
:1043200084E49EE00E94151160E184E49EE00E9416
:10433000151184E49EE00E94491160E083E00E9430
:104340007E02D0CF8AA59BA5ACA5BDA580931A04FB
:1043500090931B04A0931C04B0931D048EA59FA5ED
:10436000A8A9B9A98093160490931704A0931804E0
:10437000B09319048E010E581F4F81E7F801119276
:104380008A95E9F7B80183E50E943A29811104C0B2
:104390008FEB92E00E94F0150E9439126AED72E0F4
:1043A000CE018D519F4F0E94BE184091600E5091DA
:1043B000610E60915C0E70915D0ECE018D519F4F2C
:1043C0000E946517811105C0CE018D519F4F0E943B
:1043D000A2176AEE72E0CE018D519F4F0E94B41772
:1043E0007C014091660E5091670E6091620E709153
:1043F000630E0E946517811103C0C7010E94A217B6
:104400006CEE72E0C7010E94B417BC0180E59EE02B
:104410000E94A718CE018D519F4F0E94CF186EEEBB
:1044200072E080E59EE00E94911788E50E94B9291C
:104430006CEE72E080E59EE00E94911740E1698198
:10444000CE018D519F4F0E947A18BE016D517F4F52
:1044500080E59EE00E949B17CE018D519F4F0E94E8
:10446000CF1840E16A81CE018D519F4F0E947A188A
:10447000BE016D517F4F80E59EE00E949B17CE01EB
:104480008D519F4F0E94CF1864E073E080E59EE05D
:104490000E9491177E01FBE0EF0EF11C6E0183E29A
:1044A000C80ED11CF70181917F018823B1F0CD5155
:1044B000DF4F8883C35ED040CC51DF4F1882C45E8B
:1044C000D04041E050E0BE016D517F4F80E59EE05D
:1044D0000E946517CE14DF0429F761E173E080E5DF
:1044E0009EE00E9491178BE50E94B9296CEE72E064
:1044F00080E59EE00E94911740E1F8016081CE01C5
:104500008D519F4F0E947A18BE016D517F4F80E5FB
:104510009EE00E949B17CE018D519F4F0E94CF18A5
:1045200040E1F8016181CE018D519F4F0E947A18C0
:10453000BE016D517F4F80E59EE00E949B17CE012A
:104540008D519F4F0E94CF1865E273E080E59EE099
:104550000E9491177801FAE0EF0EF11C0E5D1F4FDB
:10456000F70181917F018823B1F0CD51DF4F88831E
:10457000C35ED040CC51DF4F1882C45ED04041E0D2
:1045800050E0BE016D517F4F80E59EE00E946517AF
:104590000E151F0529F762E373E080E59EE00E9497
:1045A0009117CD52DF4F488159816A817B81C35D6C
:1045B000D04026E0CE018D519F4F0E94C11ABE010E
:1045C0006D517F4F80E59EE00E949B17CE018D517B
:1045D0009F4F0E94CF186CEE72E080E59EE00E9433
:1045E0009117C952DF4F488159816A817B81C75D2C
:1045F000D04026E0CE018D519F4F0E94C11ABE01CE
:104600006D517F4F80E59EE00E949B17CE018D513A
:104610009F4F0E94CF186CEE72E080E59EE00E94F2
:104620009117C552DF4F488159816A817B81CB5DEB
:10463000D04026E0CE018D519F4F0E94C11ABE018D
:104640006D517F4F80E59EE00E949B17CE018D51FA
:104650009F4F0E94CF186CEE72E080E59EE00E94B2
:104660009117C152DF4F488159816A817B81CF5DAB
:10467000D040CE018D519F4F0E942118BE016D5137
:104680007F4F80E59EE00E949B17CE018D519F4F8A
:104690000E94CF186CE373E080E59EE00E949117C2
:1046A000809100016AE072E0811102C062EE71E067
:1046B00080E59EE00E9491176CEE72E080E59EE03E
:1046C0000E94911760911E0470911F04CE018D51BC
:1046D0009F4F0E94F517BE016D517F4F80E59EE010
:1046E0000E949B17CE018D519F4F0E94CF1860E50D
:1046F0007EE08FEB9CE00E942017809174049091E3
:104700007504A0917604B091770440911A045091F9
:104710001B0460911C0470911D04840F951FA61F3B
:10472000B71F4091160450911704609118047091BE
:104730001904841B950BA60BB70B80936B04909305
:104740006C04A0936D04B0936E04109270041092E8
:104750006F040E948E0B811106C08FEE91E00E94C3
:10476000F0151092050181E090E09093720480931F
:1047700071047E01F3EEEF1AFEEFFF0A84E5A82E26
:1047800081E0B82E6091710470917204683C7105EB
:1047900008F033C1CE0193950E94F517CD51DF4F3C
:1047A00019821882C35ED040CB51DF4F1982188224
:1047B000C55ED040C951DF4F19821882C75ED04014
:1047C000BE017395CE018D519F4F0E94A71865E4DD
:1047D00073E0CE018D519F4F0E94B417BC0186E556
:1047E0009EE00E94A718CE018D519F4F0E94CF18C6
:1047F000CE0193950E94CF18C090560ED090570EC0
:10480000F70113821282B182A0821582CE5FDE4F41
:1048100019821882C250D140C050DF4FB982A8829D
:10482000C050D140CB5FDE4F1882C550D140512CD3
:10483000412C7E2C6F2C05E21EE0852D942DF60177
:10484000E80FF91F20812F3209F40196D601A80F35
:10485000B91FFE01E65CFE4F30E020E04F014D91B4
:104860004F3249F0442339F001962F5F3F4F419377
:104870002C303105A1F7280D391DF9011082F60100
:10488000E80FF91F20812F3209F40196582E492E86
:104890008C0D9D1DFC013080CB51DF4F1982188299
:1048A000C55ED040CD51DF4FB982A882C35ED040F3
:1048B000C851DF4F1882C85ED04021E0A401B80182
:1048C000CE018D519F4F0E94F71A882309F48EC0A4
:1048D000CE018D519F4F0E94820B311011C08EE08E
:1048E0000532180719F0C8010E94820B80917104EB
:1048F000909172040196909372048093710442CF58
:1049000021E0A401B801872D962D0E94F71A982E58
:10491000FEE005321F0709F457C2C8010E94820B4E
:10492000911057C26AC00E94F01463E873E0CE0190
:1049300093950E94BE184091740450917504609143
:10494000760470917704CE018D519F4F0E942118FB
:10495000BE016D517F4FCE0193950E949B17CE01F2
:104960008D519F4F0E94CF1863E172E0CE01939565
:104970000E9491174AE060917304CE018D519F4FC0
:104980000E947A18BE016D517F4FCE0193950E940F
:104990009B17CE018D519F4F0E94CF1865EA73E09F
:1049A000CE0193950E949117103130F462EE71E0C0
:1049B000CE0193950E94911740E1612FCE018D5158
:1049C0009F4F0E947A18BE016D517F4FCE01939583
:1049D0000E949B17CE018D519F4F0E94CF186BE90B
:1049E00073E0CE0193950E94911775C19EE0053248
:1049F000190719F0C8010E94820B809171049091EF
:104A00007204883C910521F48AE493E00E94F01539
:104A100040E061E080E00E943D0361E08DE00E94A3
:104A20007E026FE673E08FEB9CE00E949B1566E5CB
:104A30007EE08FEB9CE00E942017C050DF4F198270
:104A40001882C050D140CE5FDE4F19821882C2500A
:104A5000D140CC5FDE4F19821882C450D14060E54E
:104A60007EE0CE0193950E94A718CE0193950E94F7
:104A7000D7186AE773E0CE0193950E949117609171
:104A80006F0470917004CE018D519F4F0E94F517F5
:104A9000BE016D517F4FCE0193950E949B17CE01B1
:104AA0008D519F4F0E94CF186CEE72E0CE0193950E
:104AB0000E94911740916B0450916C0460916D04B9
:104AC00070916E04CE018D519F4F0E942118BE013E
:104AD0006D517F4FCE0193950E949B17CE018D5152
:104AE0009F4F0E94CF18CE0193950E94D71CCE01F4
:104AF00093950E94CF1887E00E949929182F88E289
:104B00000E949929082F807117FD02C081110BCFD7
:104B100081E50E94ED0163E284E49EE00E941511AC
:104B200060E084E49EE00E94151160E084E49EE071
:104B30000E94151165E084E49EE00E94151160E07A
:104B400084E49EE00E94151160E084E49EE00E94EF
:104B5000151167E984E49EE00E94151160E084E489
:104B60009EE00E94151160E084E49EE00E94151111
:104B700084E49EE00E94491181E50E94ED018FE2EC
:104B800090E00E9444118CE290E00E94441184E481
:104B90009EE00E94491181E50E94ED0188E290E0CB
:104BA0000E94441187E990E00E94441184E49EE051
:104BB0000E94491181E50E94ED0160E084E49EE0DD
:104BC0000E94151160E084E49EE00E94151160E0EF
:104BD00084E49EE00E94151160E084E49EE00E945F
:104BE000151160E084E49EE00E94151160E084E409
:104BF0009EE00E94151160E084E49EE00E94151181
:104C000084E49EE00E9449110E94F01463E873E07E
:104C1000CE0193950E94BE18409174045091750482
:104C20006091760470917704CE018D519F4F0E9460
:104C30002118BE016D517F4FCE0193950E949B17A5
:104C4000CE018D519F4F0E94CF1863E172E0CE01DB
:104C500093950E9491174AE060917304CE018D51A3
:104C60009F4F0E947A18BE016D517F4FCE019395E0
:104C70000E949B17CE018D519F4F0E94CF186CE868
:104C800073E0CE0193950E949117103130F462EEDB
:104C900071E0CE0193950E94911740E1612FCE0102
:104CA0008D519F4F0E947A18BE016D517F4FCE01EA
:104CB00093950E949B17CE018D519F4F0E94CF1854
:104CC0006BE973E0CE0193950E94911762EE71E05B
:104CD000003108F486CE40E1602FCE018D519F4F08
:104CE0000E947A18BE016D517F4FCE0193950E94AC
:104CF0009B17CE018D519F4F0E94CF18BE01739517
:104D00008FEB9CE00E942017CE0193950E94D71C48
:104D1000CE0193950E94CF180E942B1260E084E18F
:104D20000E947E0241E060E080E00E943D0360E07E
:104D30008CE00E947E0260E08DE00E947E0260E0D6
:104D400082E00E947E020FB6F894A89580916000E0
:104D5000886180936000109260000FBEF8941092FA
:104D600080008DE08093810087E998E99093890025
:104D700080938800109285001092840082E08093D6
:104D80006F001092900085E0809391001092950042
:104D9000109294007894CA5BDE4F0FB6F894DEBF91
:104DA0000FBECDBFDF91CF911F910F91FF90EF907C
:104DB000DF90CF90BF90AF909F908F907F906F903B
:104DC0005F904F903F900895882309F416CE8E018E
:104DD0001395902F812F072D162D3C012ECD1F925C
:104DE0000F920FB60F9211242F933F938F939F939F
:104DF000AF93BF938091650A9091660AA091670A6C
:104E0000B091680A3091640A26E0230F2D3768F1CB
:104E100029E8230F0396A11DB11D2093640A8093F6
:104E2000650A9093660AA093670AB093680A809116
:104E3000690A90916A0AA0916B0AB0916C0A019676
:104E4000A11DB11D8093690A90936A0AA0936B0A11
:104E5000B0936C0ABF91AF919F918F913F912F9129
:104E60000F900FBE0F901F9018950296A11DB11DB7
:104E7000D4CF1F920F920FB60F9211240BB60F9240
:104E80002F933F934F935F936F937F938F939F9352
:104E9000AF93BF93EF93FF938FEB9CE00E942304AB
:104EA000FF91EF91BF91AF919F918F917F916F9102
:104EB0005F914F913F912F910F900BBE0F900FBEBE
:104EC0000F901F9018951F920F920FB60F921124FA
:104ED0000BB60F922F938F939F93EF93FF93E091D5
:104EE000CF0CF091D00C8081E091D50CF091D60CD4
:104EF00082FD1DC090818091D80C8F5F8F732091AF
:104F0000D90C821741F0E091D80CF0E0E154F34F56
:104F1000958F8093D80CFF91EF919F918F912F9156
:104F20000F900BBE0F900FBE0F901F9018958081B1
:104F3000F2CF1F920F920FB60F9211240BB60F9261
:104F40002F933F934F935F936F937F938F939F9391
:104F5000AF93BF93EF93FF938CE59DE00E942304F2
:104F6000FF91EF91BF91AF919F918F917F916F9141
:104F70005F914F913F912F910F900BBE0F900FBEFD
:104F80000F901F9018951F920F920FB60F92112439
:104F90000BB60F922F938F939F93EF93FF93E09114
:104FA0006C0DF0916D0D8081E091720DF091730D9B
:104FB00082FD1DC090818091750D8F5F8F73209150
:104FC000760D821741F0E091750DF0E0E45AF24F52
:104FD000958F8093750DFF91EF919F918F912F91F8
:104FE0000F900BBE0F900FBE0F901F9018958081F1
:104FF000F2CF1F920F920FB60F9211240BB60F92A1
:105000002F933F934F935F936F937F938F939F93D0
:10501000AF93BF93EF93FF938091B900887F803661
:1050200009F44DC008F040C0883209F4A7C028F543
:10503000803109F49BC0C8F4882309F403C1883087
:1050400009F494C0FF91EF91BF91AF919F918F911F
:105050007F916F915F914F913F912F910F900BBE78
:105060000F900FBE0F901F901895883109F486C0DD
:10507000803241F78093B90A14C0803409F4A3C088
:1050800040F48033B9F38833E9F68093B90A85ECAC
:10509000BAC0803509F487C0883509F49CC08834CB
:1050A00089F60E94A010CECF883909F492C038F555
:1050B000883729F050F4883611F0803719F683E0EC
:1050C0008093BB0A1092620455C0883809F481C0ED
:1050D000803919F0803809F0B5CF809162048032B0
:1050E00008F077C0E091620481E08E0F8093620443
:1050F0008091BB00F0E0EE5BFB4F80833BC0803BC8
:1051000039F0D0F4803A09F483C0883A09F09ACF94
:1051100084E08093BB0A1092410410924004F0E0B6
:10512000E0E009958091400481110FC081E08093F7
:1051300040041092200409C0803C09F4A8CF883CA8
:1051400009F4A5CF883B09F07DCFE091410481E0CF
:105150008E0F80934104F0E0E05EFB4F80818093EE
:10516000BB00909141048091400431C08091B40A09
:105170008093BB0085EC8093BC0064CF9091B60A0D
:105180008091B50A9817B8F58091B70A9091B80A3E
:10519000E091B60A21E02E0F2093B60AE80FF92F0E
:1051A000F11D8081E5CF2091B70A3091B80AE091D6
:1051B000B60A81E08E0F8093B60A8091BB00E20FA1
:1051C000F32FF11D80839091B60A8091B50A98174C
:1051D00088F285E8D0CF2091B70A3091B80AE091E3
:1051E000B60A81E08E0F8093B60A8091BB00E20F71
:1051F000F32FF11D80838091BA0A811152CF81E093
:105200008093B30A84EA8093BC001092BB0A1ACF41
:1052100085EC8093BC001092BB0A809162048032BE
:1052200030F4E0916204F0E0EE5BFB4F108260919D
:10523000620470E082E494E0F0E0E0E0099510920E
:10524000620400CF1092B90A2CCF1F920F920FB6B2
:105250000F9211248F93809101088F5F8093010832
:1052600010928500109284008F910F900FBE0F90C6
:105270001F901895CF92DF92EF92FF920F931F939A
:10528000CF93DF93D82F7B010E94ED0160E084E48F
:105290009EE00E94151160E084E49EE00E941511DA
:1052A00084E49EE00E944911C0E081E7C82ED12C21
:1052B0000C2F10E0A601401B510B4131510510F09D
:1052C00040E150E06D2F84E49EE00E9481130E0DBA
:1052D0001F1D90916D0A80916E0A981749F0C13791
:1052E000D8F40E940A02CF5FF80181938F01F1CFB9
:1052F000C13790F48D2F0E94ED0160E084E49EE0C0
:105300000E9415116C2F84E49EE00E94151184E424
:105310009EE00E944911CCCF81E0C13709F080E0C6
:10532000DF91CF911F910F91FF90EF90DF90CF9081
:105330000895CF93C82F81E50E94ED016C2F84E47E
:105340009EE00E94151184E49EE00E94491141E014
:1053500061E584E49EE00E94811390916D0A809142
:105360006E0A981721F00E940A02CF9108958FEFDC
:10537000FCCF0F931F93CF93DF9300D000D000D0CA
:10538000CDB7DEB7182F0E94ED0188E090E00E94B3
:10539000441190E080E00E94441184E49EE00E9469
:1053A000491160E170E0812F90E00E94D61210E177
:1053B0000E940A02082F803130F462EE71E080E52D
:1053C0009EE00E94911740E1602FCE0101960E945D
:1053D0007A18BE016F5F7F4F80E59EE00E949B17A9
:1053E000CE0101960E94CF18115011F726960FB6E4
:1053F000F894DEBF0FBECDBFDF91CF911F910F910B
:105400000895EFEBFCE01382128288EE93E0A0E0B7
:10541000B0E084839583A683B78322E431E03183AF
:1054200020834DEC50E0558744874CEC50E0578783
:10543000468748EC50E0518B408B49EC50E0538B51
:10544000428B4AEC50E0558B448B4EEC50E0578B2E
:10545000468B118E128E138E148EECE5FDE01382B6
:10546000128284839583A683B7833183208325ECBE
:1054700030E03587248724EC30E03787268720EC1E
:1054800030E0318B208B21EC30E0338B228B22EC0F
:1054900030E0358B248B26EC30E0378B268B118E59
:1054A000128E138E148EE9EFFDE020E5208321E0BB
:1054B0002183EBEFFDE0158216821186138642E010
:1054C00050E060E070E0448755876687778713A2D5
:1054D00015A614A624E531E033A722A717A6E4E415
:1054E000FEE01382128284839583A683B78380E6CD
:1054F00091E09183808362EB73E082E69EE00E94FC
:10550000BE1860EE73E08CE59EE00E94BE1860E776
:1055100071E086E59EE00E94BE1860E771E080E5DC
:105520009EE00C94BE18CF93DF93CDB7DEB7C3597E
:10553000D1090FB6F894DEBF0FBECDBF789484B505
:10554000836084BD85B5836085BD80916E00816078
:1055500080936E0082E08093810080918100816061
:105560008093810080918000816080938000809191
:10557000B10084608093B1008091B000816080931D
:10558000B0008091910083608093910080919000A1
:1055900081608093900086E880937A001092C10029
:1055A0000E94241E10925D0A10925C0A10925F0AFB
:1055B00010925E0A1092610A1092600A1092630AB9
:1055C0001092620A81E090E090935B0A80935A0AFD
:1055D00061E087E10E947E0260E086E10E947E0237
:1055E0000E94380161E086E10E947E0210928500EF
:1055F00010928400909194008091950089279827BB
:105600008927909303088093020810920108109252
:1056100000081092FF07189B02C00C94E0338091A1
:1056200001088230C0F38EE10E945502892B29F5D2
:1056300008EC10E086E990E00E94DD0261E08FE076
:105640000E94AC0261E08FE00E947E0286E990E059
:105650000E94DD0261E08FE00E94AC0260E08FE01A
:105660000E947E020150110929F78091FE0791E006
:1056700089278093FE070E943F16109201088091AF
:1056800000088F5F809300088091FF078F5F8093F1
:10569000FF078BE10E945502682F8DE00E947E0279
:1056A0008BE10E945502892B11F00E94DC1661E00B
:1056B00086E10E947E0260E087E10E947E0288E12E
:1056C00099E20FB6F894A895809360000FBE90936E
:1056D00060000E9439120E94F01460E771E0CE0170
:1056E000885A9F4F0E94BE186EEE73E0CE01885A12
:1056F0009F4F0E9491176091FC077091FD07CE01AA
:1057000001960E94F517BE016F5F7F4FCE01885A48
:105710009F4F0E949B17CE0101960E94CF186CEEFE
:1057200072E0CE01885A9F4F0E9491176091020843
:1057300070910308CE0101960E94F517BE016F5FBC
:105740007F4FCE01885A9F4F0E949B17CE01019632
:105750000E94CF182AE7E22E24E0F22E31EDA32E8C
:1057600036E0B32E44E0C42E48E0D42E01E010E031
:1057700080915A0A90915B0A0817190708F054C0E3
:105780000C3221E0120709F44FC0D5018D915D0163
:10579000F601419051906F01712C612C882331F0FA
:1057A000F7E94F0EF8E95F1E611C711C6EE671E0AF
:1057B000CE01885A9F4F0E94911766EF73E0CE0189
:1057C000885A9F4F0E949117B301A201CE01019602
:1057D0000E942118BE016F5F7F4FCE01885A9F4FF4
:1057E0000E949B17CE0101960E94CF186CEE72E0CA
:1057F000CE01885A9F4F0E949117D7016D917D91DC
:105800007D01CE0101960E94F517BE016F5F7F4FAB
:10581000CE01885A9F4F0E949B17CE0101960E948D
:10582000CF180F5F1F4FA4CF6AEF73E0CE01885AE5
:105830009F4F0E9491176091FC077091FD07CE0168
:1058400001960E94F517BE016F5F7F4FCE01885A07
:105850009F4F0E949B17CE0101960E94CF186CEEBD
:1058600072E0CE01885A9F4F0E94911740917404B4
:10587000509175046091760470917704CE01019681
:105880000E942118BE016F5F7F4FCE01885A9F4F43
:105890000E949B17CE0101960E94CF1863E172E02F
:1058A000CE01885A9F4F0E9491174AE0609173047D
:1058B000CE0101960E947A18BE016F5F7F4FCE0124
:1058C000885A9F4F0E949B17CE0101960E94CF18C5
:1058D0006CEE72E0CE01885A9F4F0E949117809122
:1058E000940060919500762F682FCE0101960E945A
:1058F000F517BE016F5F7F4FCE01885A9F4F0E9400
:105900009B17CE0101960E94CF186CEE72E0CE017B
:10591000885A9F4F0E94911760915A0A70915B0AB2
:1059200061507109CE0101960E94F517BE016F5FAB
:105930007F4FCE01885A9F4F0E949B17CE01019640
:105940000E94CF180CE51AE094E6E92E9AE0F92EB1
:105950006CEE72E0CE01885A9F4F0E949117F801B9
:10596000619171918F01CE0101960E94F517BE01E0
:105970006F5F7F4FCE01885A9F4F0E949B17CE01C9
:1059800001960E94CF18E016F10611F7BE01685A81
:105990007F4F8FEB9CE00E942017CE01885A9F4FCB
:1059A0000E94D71C80910501811146C061E08DE005
:1059B0000E947E026E96EEACFFAC6E9710E000E0A7
:1059C000DD24DA948DE10E945502892B19F0DA94D6
:1059D000D110F8CF82E390E00E94DD026801FFEF72
:1059E000CF1ADF0A6E968EAD9FAD6E970817190716
:1059F00040F46A968EAD9FAD6A97080F191F892BE8
:105A000021F410926A040AE614E0D8016C918CE546
:105A10009DE00E944504EC14FD0408F0E1C26EE62E
:105A200071E08CE59DE00E949B15BE01685A7F4F96
:105A30008FEB9CE00E94201760E08EE00E947E02C7
:105A400060E08DE00E947E028091FC079091FD074E
:105A5000893F9A4208F497C01092FD071092FC0704
:105A600060917104709172046F5F7F4F7093720444
:105A700060937104CE01CC960E94F5171A821982A8
:105A80001C821B821E821D82BE01645C7F4FCE0180
:105A900001960E94A71865E473E0CE0101960E946A
:105AA000B417BC0186E59EE00E94A718CE010196BE
:105AB0000E94CF18CE01CC960E94CF1880916F041F
:105AC0009091700401969093700480936F046FE638
:105AD00073E08FEB9CE00E949B1566E57EE08FEB08
